{
  "_format": "hh-sol-artifact-1",
  "contractName": "Funds",
  "sourceName": "contracts/fonduri.sol",
  "abi": [
    {
      "inputs": [],
      "stateMutability": "nonpayable",
      "type": "constructor"
    },
    {
      "anonymous": false,
      "inputs": [
        {
          "indexed": true,
          "internalType": "address",
          "name": "donor",
          "type": "address"
        },
        {
          "indexed": false,
          "internalType": "uint256",
          "name": "amount",
          "type": "uint256"
        }
      ],
      "name": "DonationReceived",
      "type": "event"
    },
    {
      "anonymous": false,
      "inputs": [
        {
          "indexed": true,
          "internalType": "uint256",
          "name": "proposalId",
          "type": "uint256"
        },
        {
          "indexed": false,
          "internalType": "address",
          "name": "recipient",
          "type": "address"
        },
        {
          "indexed": false,
          "internalType": "uint256",
          "name": "amount",
          "type": "uint256"
        }
      ],
      "name": "FundsDistributed",
      "type": "event"
    },
    {
      "anonymous": false,
      "inputs": [
        {
          "indexed": true,
          "internalType": "address",
          "name": "account",
          "type": "address"
        },
        {
          "indexed": false,
          "internalType": "uint256",
          "name": "amount",
          "type": "uint256"
        }
      ],
      "name": "FundsWithdrawn",
      "type": "event"
    },
    {
      "anonymous": false,
      "inputs": [
        {
          "indexed": true,
          "internalType": "uint256",
          "name": "proposalId",
          "type": "uint256"
        },
        {
          "indexed": false,
          "internalType": "string",
          "name": "description",
          "type": "string"
        },
        {
          "indexed": false,
          "internalType": "uint256",
          "name": "amountRequested",
          "type": "uint256"
        },
        {
          "indexed": false,
          "internalType": "string",
          "name": "ipfsHash",
          "type": "string"
        }
      ],
      "name": "ProposalCreated",
      "type": "event"
    },
    {
      "anonymous": false,
      "inputs": [
        {
          "indexed": true,
          "internalType": "uint256",
          "name": "proposalId",
          "type": "uint256"
        },
        {
          "indexed": false,
          "internalType": "address",
          "name": "voter",
          "type": "address"
        },
        {
          "indexed": false,
          "internalType": "bool",
          "name": "support",
          "type": "bool"
        }
      ],
      "name": "Voted",
      "type": "event"
    },
    {
      "inputs": [
        {
          "internalType": "uint256",
          "name": "total",
          "type": "uint256"
        },
        {
          "internalType": "uint256",
          "name": "percentage",
          "type": "uint256"
        }
      ],
      "name": "calculatePercentage",
      "outputs": [
        {
          "internalType": "uint256",
          "name": "",
          "type": "uint256"
        }
      ],
      "stateMutability": "pure",
      "type": "function"
    },
    {
      "inputs": [],
      "name": "charityContractAddress",
      "outputs": [
        {
          "internalType": "address",
          "name": "",
          "type": "address"
        }
      ],
      "stateMutability": "view",
      "type": "function"
    },
    {
      "inputs": [
        {
          "internalType": "string",
          "name": "description",
          "type": "string"
        },
        {
          "internalType": "uint256",
          "name": "amountRequested",
          "type": "uint256"
        },
        {
          "internalType": "string",
          "name": "ipfsHash",
          "type": "string"
        }
      ],
      "name": "createProposal",
      "outputs": [],
      "stateMutability": "nonpayable",
      "type": "function"
    },
    {
      "inputs": [
        {
          "internalType": "uint256",
          "name": "proposalId",
          "type": "uint256"
        }
      ],
      "name": "distributeFunds",
      "outputs": [],
      "stateMutability": "nonpayable",
      "type": "function"
    },
    {
      "inputs": [],
      "name": "donate",
      "outputs": [],
      "stateMutability": "payable",
      "type": "function"
    },
    {
      "inputs": [
        {
          "internalType": "uint256",
          "name": "amount",
          "type": "uint256"
        }
      ],
      "name": "donateToCharity",
      "outputs": [],
      "stateMutability": "nonpayable",
      "type": "function"
    },
    {
      "inputs": [],
      "name": "getAllProposals",
      "outputs": [
        {
          "internalType": "string[]",
          "name": "descriptions",
          "type": "string[]"
        },
        {
          "internalType": "uint256[]",
          "name": "amountsRequested",
          "type": "uint256[]"
        },
        {
          "internalType": "uint256[]",
          "name": "votesFor",
          "type": "uint256[]"
        },
        {
          "internalType": "uint256[]",
          "name": "votesAgainst",
          "type": "uint256[]"
        },
        {
          "internalType": "bool[]",
          "name": "opens",
          "type": "bool[]"
        },
        {
          "internalType": "bool[]",
          "name": "executeds",
          "type": "bool[]"
        },
        {
          "internalType": "string[]",
          "name": "ipfsHashes",
          "type": "string[]"
        }
      ],
      "stateMutability": "view",
      "type": "function"
    },
    {
      "inputs": [
        {
          "internalType": "uint256",
          "name": "proposalId",
          "type": "uint256"
        }
      ],
      "name": "getProposal",
      "outputs": [
        {
          "internalType": "string",
          "name": "description",
          "type": "string"
        },
        {
          "internalType": "uint256",
          "name": "amountRequested",
          "type": "uint256"
        },
        {
          "internalType": "uint256",
          "name": "votesFor",
          "type": "uint256"
        },
        {
          "internalType": "uint256",
          "name": "votesAgainst",
          "type": "uint256"
        },
        {
          "internalType": "bool",
          "name": "open",
          "type": "bool"
        },
        {
          "internalType": "bool",
          "name": "executed",
          "type": "bool"
        },
        {
          "internalType": "string",
          "name": "ipfsHash",
          "type": "string"
        }
      ],
      "stateMutability": "view",
      "type": "function"
    },
    {
      "inputs": [],
      "name": "owner",
      "outputs": [
        {
          "internalType": "address",
          "name": "",
          "type": "address"
        }
      ],
      "stateMutability": "view",
      "type": "function"
    },
    {
      "inputs": [],
      "name": "proposalCount",
      "outputs": [
        {
          "internalType": "uint256",
          "name": "",
          "type": "uint256"
        }
      ],
      "stateMutability": "view",
      "type": "function"
    },
    {
      "inputs": [
        {
          "internalType": "uint256",
          "name": "",
          "type": "uint256"
        }
      ],
      "name": "proposals",
      "outputs": [
        {
          "internalType": "string",
          "name": "description",
          "type": "string"
        },
        {
          "internalType": "uint256",
          "name": "amountRequested",
          "type": "uint256"
        },
        {
          "internalType": "uint256",
          "name": "votesFor",
          "type": "uint256"
        },
        {
          "internalType": "uint256",
          "name": "votesAgainst",
          "type": "uint256"
        },
        {
          "internalType": "bool",
          "name": "open",
          "type": "bool"
        },
        {
          "internalType": "bool",
          "name": "executed",
          "type": "bool"
        },
        {
          "internalType": "string",
          "name": "ipfsHash",
          "type": "string"
        }
      ],
      "stateMutability": "view",
      "type": "function"
    },
    {
      "inputs": [
        {
          "internalType": "address",
          "name": "_charityContract",
          "type": "address"
        }
      ],
      "name": "setCharityContract",
      "outputs": [],
      "stateMutability": "nonpayable",
      "type": "function"
    },
    {
      "inputs": [],
      "name": "totalFunds",
      "outputs": [
        {
          "internalType": "uint256",
          "name": "",
          "type": "uint256"
        }
      ],
      "stateMutability": "view",
      "type": "function"
    },
    {
      "inputs": [
        {
          "internalType": "uint256",
          "name": "proposalId",
          "type": "uint256"
        },
        {
          "internalType": "bool",
          "name": "support",
          "type": "bool"
        }
      ],
      "name": "vote",
      "outputs": [],
      "stateMutability": "nonpayable",
      "type": "function"
    },
    {
      "inputs": [
        {
          "internalType": "uint256",
          "name": "amount",
          "type": "uint256"
        }
      ],
      "name": "withdraw",
      "outputs": [],
      "stateMutability": "nonpayable",
      "type": "function"
    }
  ],
  "bytecode": "0x6080604052348015600f57600080fd5b50336000806101000a81548173ffffffffffffffffffffffffffffffffffffffff021916908373ffffffffffffffffffffffffffffffffffffffff1602179055506125858061005f6000396000f3fe6080604052600436106100e85760003560e01c8063beeaee911161008a578063da35c66411610059578063da35c66414610304578063ed88c68e1461032f578063f1d8eefc14610339578063f726f71514610364576100e8565b8063beeaee911461023e578063c7f758a814610267578063c9d27afe146102aa578063cceb68f5146102d3576100e8565b806356d9ef34116100c657806356d9ef34146101965780638da5cb5b146101bf578063968ed600146101ea578063bcb82dbc14610215576100e8565b8063013cf08b146100ed5780632133e3b9146101305780632e1a7d4d1461016d575b600080fd5b3480156100f957600080fd5b50610114600480360381019061010f9190611496565b61038d565b604051610127979695949392919061157d565b60405180910390f35b34801561013c57600080fd5b50610157600480360381019061015291906115fa565b6104f9565b604051610164919061163a565b60405180910390f35b34801561017957600080fd5b50610194600480360381019061018f9190611496565b61051b565b005b3480156101a257600080fd5b506101bd60048036038101906101b8919061178a565b6105f6565b005b3480156101cb57600080fd5b506101d4610790565b6040516101e19190611856565b60405180910390f35b3480156101f657600080fd5b506101ff6107b4565b60405161020c919061163a565b60405180910390f35b34801561022157600080fd5b5061023c6004803603810190610237919061189d565b6107ba565b005b34801561024a57600080fd5b5061026560048036038101906102609190611496565b61088c565b005b34801561027357600080fd5b5061028e60048036038101906102899190611496565b610a17565b6040516102a1979695949392919061157d565b60405180910390f35b3480156102b657600080fd5b506102d160048036038101906102cc91906118f6565b610beb565b005b3480156102df57600080fd5b506102e8610dbb565b6040516102fb9796959493929190611bbe565b60405180910390f35b34801561031057600080fd5b506103196110f7565b604051610326919061163a565b60405180910390f35b6103376110fd565b005b34801561034557600080fd5b5061034e6111a9565b60405161035b9190611856565b60405180910390f35b34801561037057600080fd5b5061038b60048036038101906103869190611496565b6111cf565b005b60026020528060005260406000206000915090508060000180546103b090611c8d565b80601f01602080910402602001604051908101604052809291908181526020018280546103dc90611c8d565b80156104295780601f106103fe57610100808354040283529160200191610429565b820191906000526020600020905b81548152906001019060200180831161040c57829003601f168201915b5050505050908060010154908060020154908060030154908060040160009054906101000a900460ff16908060040160019054906101000a900460ff169080600601805461047690611c8d565b80601f01602080910402602001604051908101604052809291908181526020018280546104a290611c8d565b80156104ef5780601f106104c4576101008083540402835291602001916104ef565b820191906000526020600020905b8154815290600101906020018083116104d257829003601f168201915b5050505050905087565b6000606482846105099190611ced565b6105139190611d5e565b905092915050565b4781111561055e576040517f08c379a000000000000000000000000000000000000000000000000000000000815260040161055590611ddb565b60405180910390fd5b3373ffffffffffffffffffffffffffffffffffffffff166108fc829081150290604051600060405180830381858888f193505050501580156105a4573d6000803e3d6000fd5b503373ffffffffffffffffffffffffffffffffffffffff167feaff4b37086828766ad3268786972c0cd24259d4c87a80f9d3963a3c3d999b0d826040516105eb919061163a565b60405180910390a250565b60008054906101000a900473ffffffffffffffffffffffffffffffffffffffff1673ffffffffffffffffffffffffffffffffffffffff163373ffffffffffffffffffffffffffffffffffffffff1614610684576040517f08c379a000000000000000000000000000000000000000000000000000000000815260040161067b90611e47565b60405180910390fd5b6001548211156106c9576040517f08c379a00000000000000000000000000000000000000000000000000000000081526004016106c090611ddb565b60405180910390fd5b600060026000600360008154809291906106e290611e67565b919050558152602001908152602001600020905083816000019081610707919061205b565b5082816001018190555060018160040160006101000a81548160ff0219169083151502179055508181600601908161073f919061205b565b50600160035461074f919061212d565b7f18ed699f869a4ee351b5a3f3fc22ed99a22644d8e4b199afb1d226a02167c66d85858560405161078293929190612161565b60405180910390a250505050565b60008054906101000a900473ffffffffffffffffffffffffffffffffffffffff1681565b60015481565b60008054906101000a900473ffffffffffffffffffffffffffffffffffffffff1673ffffffffffffffffffffffffffffffffffffffff163373ffffffffffffffffffffffffffffffffffffffff1614610848576040517f08c379a000000000000000000000000000000000000000000000000000000000815260040161083f90611e47565b60405180910390fd5b80600460006101000a81548173ffffffffffffffffffffffffffffffffffffffff021916908373ffffffffffffffffffffffffffffffffffffffff16021790555050565b60008054906101000a900473ffffffffffffffffffffffffffffffffffffffff1673ffffffffffffffffffffffffffffffffffffffff163373ffffffffffffffffffffffffffffffffffffffff161461091a576040517f08c379a000000000000000000000000000000000000000000000000000000000815260040161091190611e47565b60405180910390fd5b600073ffffffffffffffffffffffffffffffffffffffff16600460009054906101000a900473ffffffffffffffffffffffffffffffffffffffff1673ffffffffffffffffffffffffffffffffffffffff16036109ab576040517f08c379a00000000000000000000000000000000000000000000000000000000081526004016109a2906121f2565b60405180910390fd5b600460009054906101000a900473ffffffffffffffffffffffffffffffffffffffff1673ffffffffffffffffffffffffffffffffffffffff166108fc829081150290604051600060405180830381858888f19350505050158015610a13573d6000803e3d6000fd5b5050565b6060600080600080600060606003548810610a67576040517f08c379a0000000000000000000000000000000000000000000000000000000008152600401610a5e9061225e565b60405180910390fd5b6000600260008a81526020019081526020016000209050806000018160010154826002015483600301548460040160009054906101000a900460ff168560040160019054906101000a900460ff1686600601868054610ac590611c8d565b80601f0160208091040260200160405190810160405280929190818152602001828054610af190611c8d565b8015610b3e5780601f10610b1357610100808354040283529160200191610b3e565b820191906000526020600020905b815481529060010190602001808311610b2157829003601f168201915b50505050509650808054610b5190611c8d565b80601f0160208091040260200160405190810160405280929190818152602001828054610b7d90611c8d565b8015610bca5780601f10610b9f57610100808354040283529160200191610bca565b820191906000526020600020905b815481529060010190602001808311610bad57829003601f168201915b50505050509050975097509750975097509750975050919395979092949650565b60006002600084815260200190815260200160002090508060040160009054906101000a900460ff16610c53576040517f08c379a0000000000000000000000000000000000000000000000000000000008152600401610c4a906122ca565b60405180910390fd5b8060050160003373ffffffffffffffffffffffffffffffffffffffff1673ffffffffffffffffffffffffffffffffffffffff16815260200190815260200160002060009054906101000a900460ff1615610ce2576040517f08c379a0000000000000000000000000000000000000000000000000000000008152600401610cd990612336565b60405180910390fd5b60018160050160003373ffffffffffffffffffffffffffffffffffffffff1673ffffffffffffffffffffffffffffffffffffffff16815260200190815260200160002060006101000a81548160ff0219169083151502179055508115610d6157806002016000815480929190610d5790611e67565b9190505550610d7c565b806003016000815480929190610d7690611e67565b91905055505b827ff2913dbe661ee2acc4a046d8fbcdc792373bda34c41c6086484b5345e5785e5f3384604051610dae929190612356565b60405180910390a2505050565b606080606080606080606060035467ffffffffffffffff811115610de257610de161165f565b5b604051908082528060200260200182016040528015610e1557816020015b6060815260200190600190039081610e005790505b50965060035467ffffffffffffffff811115610e3457610e3361165f565b5b604051908082528060200260200182016040528015610e625781602001602082028036833780820191505090505b50955060035467ffffffffffffffff811115610e8157610e8061165f565b5b604051908082528060200260200182016040528015610eaf5781602001602082028036833780820191505090505b50945060035467ffffffffffffffff811115610ece57610ecd61165f565b5b604051908082528060200260200182016040528015610efc5781602001602082028036833780820191505090505b50935060035467ffffffffffffffff811115610f1b57610f1a61165f565b5b604051908082528060200260200182016040528015610f495781602001602082028036833780820191505090505b50925060035467ffffffffffffffff811115610f6857610f6761165f565b5b604051908082528060200260200182016040528015610f965781602001602082028036833780820191505090505b50915060035467ffffffffffffffff811115610fb557610fb461165f565b5b604051908082528060200260200182016040528015610fe857816020015b6060815260200190600190039081610fd35790505b50905060005b6003548110156110ed5761100181610a17565b8e88815181106110145761101361237f565b5b602002602001018e898151811061102e5761102d61237f565b5b602002602001018e8a815181106110485761104761237f565b5b602002602001018e8b815181106110625761106161237f565b5b602002602001018e8c8151811061107c5761107b61237f565b5b602002602001018e8d815181106110965761109561237f565b5b602002602001018e8e815181106110b0576110af61237f565b5b6020026020010187905287151515158152508715151515815250878152508781525087815250879052505050505050508080600101915050610fee565b5090919293949596565b60035481565b60003411611140576040517f08c379a0000000000000000000000000000000000000000000000000000000008152600401611137906123fa565b60405180910390fd5b3460016000828254611152919061241a565b925050819055503373ffffffffffffffffffffffffffffffffffffffff167f264f630d9efa0d07053a31163641d9fcc0adafc9d9e76f1c37c2ce3a558d2c523460405161119f919061163a565b60405180910390a2565b600460009054906101000a900473ffffffffffffffffffffffffffffffffffffffff1681565b60008054906101000a900473ffffffffffffffffffffffffffffffffffffffff1673ffffffffffffffffffffffffffffffffffffffff163373ffffffffffffffffffffffffffffffffffffffff161461125d576040517f08c379a000000000000000000000000000000000000000000000000000000000815260040161125490611e47565b60405180910390fd5b60006002600083815260200190815260200160002090508060040160009054906101000a900460ff166112c5576040517f08c379a00000000000000000000000000000000000000000000000000000000081526004016112bc9061249a565b60405180910390fd5b8060040160019054906101000a900460ff1615611317576040517f08c379a000000000000000000000000000000000000000000000000000000000815260040161130e90612506565b60405180910390fd5b80600301548160020154111561142b5760008054906101000a900473ffffffffffffffffffffffffffffffffffffffff1673ffffffffffffffffffffffffffffffffffffffff166108fc82600101549081150290604051600060405180830381858888f19350505050158015611391573d6000803e3d6000fd5b5060018160040160016101000a81548160ff0219169083151502179055508060010154600160008282546113c5919061212d565b92505081905550817f9f5926601e7fc353505f05fae61282ae5d67b716f95656849456e6aa7bbbbb5f60008054906101000a900473ffffffffffffffffffffffffffffffffffffffff168360010154604051611422929190612526565b60405180910390a25b60008160040160006101000a81548160ff0219169083151502179055505050565b6000604051905090565b600080fd5b600080fd5b6000819050919050565b61147381611460565b811461147e57600080fd5b50565b6000813590506114908161146a565b92915050565b6000602082840312156114ac576114ab611456565b5b60006114ba84828501611481565b91505092915050565b600081519050919050565b600082825260208201905092915050565b60005b838110156114fd5780820151818401526020810190506114e2565b60008484015250505050565b6000601f19601f8301169050919050565b6000611525826114c3565b61152f81856114ce565b935061153f8185602086016114df565b61154881611509565b840191505092915050565b61155c81611460565b82525050565b60008115159050919050565b61157781611562565b82525050565b600060e0820190508181036000830152611597818a61151a565b90506115a66020830189611553565b6115b36040830188611553565b6115c06060830187611553565b6115cd608083018661156e565b6115da60a083018561156e565b81810360c08301526115ec818461151a565b905098975050505050505050565b6000806040838503121561161157611610611456565b5b600061161f85828601611481565b925050602061163085828601611481565b9150509250929050565b600060208201905061164f6000830184611553565b92915050565b600080fd5b600080fd5b7f4e487b7100000000000000000000000000000000000000000000000000000000600052604160045260246000fd5b61169782611509565b810181811067ffffffffffffffff821117156116b6576116b561165f565b5b80604052505050565b60006116c961144c565b90506116d5828261168e565b919050565b600067ffffffffffffffff8211156116f5576116f461165f565b5b6116fe82611509565b9050602081019050919050565b82818337600083830152505050565b600061172d611728846116da565b6116bf565b9050828152602081018484840111156117495761174861165a565b5b61175484828561170b565b509392505050565b600082601f83011261177157611770611655565b5b813561178184826020860161171a565b91505092915050565b6000806000606084860312156117a3576117a2611456565b5b600084013567ffffffffffffffff8111156117c1576117c061145b565b5b6117cd8682870161175c565b93505060206117de86828701611481565b925050604084013567ffffffffffffffff8111156117ff576117fe61145b565b5b61180b8682870161175c565b9150509250925092565b600073ffffffffffffffffffffffffffffffffffffffff82169050919050565b600061184082611815565b9050919050565b61185081611835565b82525050565b600060208201905061186b6000830184611847565b92915050565b61187a81611835565b811461188557600080fd5b50565b60008135905061189781611871565b92915050565b6000602082840312156118b3576118b2611456565b5b60006118c184828501611888565b91505092915050565b6118d381611562565b81146118de57600080fd5b50565b6000813590506118f0816118ca565b92915050565b6000806040838503121561190d5761190c611456565b5b600061191b85828601611481565b925050602061192c858286016118e1565b9150509250929050565b600081519050919050565b600082825260208201905092915050565b6000819050602082019050919050565b600082825260208201905092915050565b600061197e826114c3565b6119888185611962565b93506119988185602086016114df565b6119a181611509565b840191505092915050565b60006119b88383611973565b905092915050565b6000602082019050919050565b60006119d882611936565b6119e28185611941565b9350836020820285016119f485611952565b8060005b85811015611a305784840389528151611a1185826119ac565b9450611a1c836119c0565b925060208a019950506001810190506119f8565b50829750879550505050505092915050565b600081519050919050565b600082825260208201905092915050565b6000819050602082019050919050565b611a7781611460565b82525050565b6000611a898383611a6e565b60208301905092915050565b6000602082019050919050565b6000611aad82611a42565b611ab78185611a4d565b9350611ac283611a5e565b8060005b83811015611af3578151611ada8882611a7d565b9750611ae583611a95565b925050600181019050611ac6565b5085935050505092915050565b600081519050919050565b600082825260208201905092915050565b6000819050602082019050919050565b611b3581611562565b82525050565b6000611b478383611b2c565b60208301905092915050565b6000602082019050919050565b6000611b6b82611b00565b611b758185611b0b565b9350611b8083611b1c565b8060005b83811015611bb1578151611b988882611b3b565b9750611ba383611b53565b925050600181019050611b84565b5085935050505092915050565b600060e0820190508181036000830152611bd8818a6119cd565b90508181036020830152611bec8189611aa2565b90508181036040830152611c008188611aa2565b90508181036060830152611c148187611aa2565b90508181036080830152611c288186611b60565b905081810360a0830152611c3c8185611b60565b905081810360c0830152611c5081846119cd565b905098975050505050505050565b7f4e487b7100000000000000000000000000000000000000000000000000000000600052602260045260246000fd5b60006002820490506001821680611ca557607f821691505b602082108103611cb857611cb7611c5e565b5b50919050565b7f4e487b7100000000000000000000000000000000000000000000000000000000600052601160045260246000fd5b6000611cf882611460565b9150611d0383611460565b9250828202611d1181611460565b91508282048414831517611d2857611d27611cbe565b5b5092915050565b7f4e487b7100000000000000000000000000000000000000000000000000000000600052601260045260246000fd5b6000611d6982611460565b9150611d7483611460565b925082611d8457611d83611d2f565b5b828204905092915050565b7f4e6f7420656e6f7567682066756e647300000000000000000000000000000000600082015250565b6000611dc56010836114ce565b9150611dd082611d8f565b602082019050919050565b60006020820190508181036000830152611df481611db8565b9050919050565b7f4e6f7420617574686f72697a6564000000000000000000000000000000000000600082015250565b6000611e31600e836114ce565b9150611e3c82611dfb565b602082019050919050565b60006020820190508181036000830152611e6081611e24565b9050919050565b6000611e7282611460565b91507fffffffffffffffffffffffffffffffffffffffffffffffffffffffffffffffff8203611ea457611ea3611cbe565b5b600182019050919050565b60008190508160005260206000209050919050565b60006020601f8301049050919050565b600082821b905092915050565b600060088302611f117fffffffffffffffffffffffffffffffffffffffffffffffffffffffffffffffff82611ed4565b611f1b8683611ed4565b95508019841693508086168417925050509392505050565b6000819050919050565b6000611f58611f53611f4e84611460565b611f33565b611460565b9050919050565b6000819050919050565b611f7283611f3d565b611f86611f7e82611f5f565b848454611ee1565b825550505050565b600090565b611f9b611f8e565b611fa6818484611f69565b505050565b5b81811015611fca57611fbf600082611f93565b600181019050611fac565b5050565b601f82111561200f57611fe081611eaf565b611fe984611ec4565b81016020851015611ff8578190505b61200c61200485611ec4565b830182611fab565b50505b505050565b600082821c905092915050565b600061203260001984600802612014565b1980831691505092915050565b600061204b8383612021565b9150826002028217905092915050565b612064826114c3565b67ffffffffffffffff81111561207d5761207c61165f565b5b6120878254611c8d565b612092828285611fce565b600060209050601f8311600181146120c557600084156120b3578287015190505b6120bd858261203f565b865550612125565b601f1984166120d386611eaf565b60005b828110156120fb578489015182556001820191506020850194506020810190506120d6565b868310156121185784890151612114601f891682612021565b8355505b6001600288020188555050505b505050505050565b600061213882611460565b915061214383611460565b925082820390508181111561215b5761215a611cbe565b5b92915050565b6000606082019050818103600083015261217b818661151a565b905061218a6020830185611553565b818103604083015261219c818461151a565b9050949350505050565b7f4368617269747920636f6e7472616374206e6f74207365740000000000000000600082015250565b60006121dc6018836114ce565b91506121e7826121a6565b602082019050919050565b6000602082019050818103600083015261220b816121cf565b9050919050565b7f496e76616c69642070726f706f73616c20494400000000000000000000000000600082015250565b60006122486013836114ce565b915061225382612212565b602082019050919050565b600060208201905081810360008301526122778161223b565b9050919050565b7f566f74696e6720636c6f73656400000000000000000000000000000000000000600082015250565b60006122b4600d836114ce565b91506122bf8261227e565b602082019050919050565b600060208201905081810360008301526122e3816122a7565b9050919050565b7f416c726561647920766f74656400000000000000000000000000000000000000600082015250565b6000612320600d836114ce565b915061232b826122ea565b602082019050919050565b6000602082019050818103600083015261234f81612313565b9050919050565b600060408201905061236b6000830185611847565b612378602083018461156e565b9392505050565b7f4e487b7100000000000000000000000000000000000000000000000000000000600052603260045260246000fd5b7f4d7573742073656e642045544800000000000000000000000000000000000000600082015250565b60006123e4600d836114ce565b91506123ef826123ae565b602082019050919050565b60006020820190508181036000830152612413816123d7565b9050919050565b600061242582611460565b915061243083611460565b925082820190508082111561244857612447611cbe565b5b92915050565b7f50726f706f73616c20636c6f7365640000000000000000000000000000000000600082015250565b6000612484600f836114ce565b915061248f8261244e565b602082019050919050565b600060208201905081810360008301526124b381612477565b9050919050565b7f416c726561647920657865637574656400000000000000000000000000000000600082015250565b60006124f06010836114ce565b91506124fb826124ba565b602082019050919050565b6000602082019050818103600083015261251f816124e3565b9050919050565b600060408201905061253b6000830185611847565b6125486020830184611553565b939250505056fea2646970667358221220ea99ee4881d23c0c23f79f6234739c3a4ee0a589320006659a91c9644f6b9d8b64736f6c634300081c0033",
  "linkReferences": {},
  "deployedLinkReferences": {}
}