{
  "_format": "hh-sol-artifact-1",
  "contractName": "Funds",
  "sourceName": "contracts/fonduri.sol",
  "abi": [
    {
      "inputs": [],
      "stateMutability": "nonpayable",
      "type": "constructor"
    },
    {
      "anonymous": false,
      "inputs": [
        {
          "indexed": true,
          "internalType": "address",
          "name": "donor",
          "type": "address"
        },
        {
          "indexed": false,
          "internalType": "uint256",
          "name": "amount",
          "type": "uint256"
        }
      ],
      "name": "DonationReceived",
      "type": "event"
    },
    {
      "anonymous": false,
      "inputs": [
        {
          "indexed": true,
          "internalType": "uint256",
          "name": "proposalId",
          "type": "uint256"
        },
        {
          "indexed": false,
          "internalType": "address",
          "name": "recipient",
          "type": "address"
        },
        {
          "indexed": false,
          "internalType": "uint256",
          "name": "amount",
          "type": "uint256"
        }
      ],
      "name": "FundsDistributed",
      "type": "event"
    },
    {
      "anonymous": false,
      "inputs": [
        {
          "indexed": true,
          "internalType": "address",
          "name": "account",
          "type": "address"
        },
        {
          "indexed": false,
          "internalType": "uint256",
          "name": "amount",
          "type": "uint256"
        }
      ],
      "name": "FundsWithdrawn",
      "type": "event"
    },
    {
      "anonymous": false,
      "inputs": [
        {
          "indexed": true,
          "internalType": "uint256",
          "name": "proposalId",
          "type": "uint256"
        },
        {
          "indexed": false,
          "internalType": "string",
          "name": "title",
          "type": "string"
        },
        {
          "indexed": false,
          "internalType": "string",
          "name": "description",
          "type": "string"
        },
        {
          "indexed": false,
          "internalType": "uint256",
          "name": "amountRequested",
          "type": "uint256"
        },
        {
          "indexed": false,
          "internalType": "string",
          "name": "ipfsHash",
          "type": "string"
        }
      ],
      "name": "ProposalCreated",
      "type": "event"
    },
    {
      "anonymous": false,
      "inputs": [
        {
          "indexed": true,
          "internalType": "uint256",
          "name": "proposalId",
          "type": "uint256"
        },
        {
          "indexed": false,
          "internalType": "address",
          "name": "voter",
          "type": "address"
        },
        {
          "indexed": false,
          "internalType": "bool",
          "name": "support",
          "type": "bool"
        }
      ],
      "name": "Voted",
      "type": "event"
    },
    {
      "inputs": [],
      "name": "charityContractAddress",
      "outputs": [
        {
          "internalType": "address",
          "name": "",
          "type": "address"
        }
      ],
      "stateMutability": "view",
      "type": "function"
    },
    {
      "inputs": [
        {
          "internalType": "string",
          "name": "title",
          "type": "string"
        },
        {
          "internalType": "string",
          "name": "description",
          "type": "string"
        },
        {
          "internalType": "uint256",
          "name": "amountRequested",
          "type": "uint256"
        },
        {
          "internalType": "string",
          "name": "ipfsHash",
          "type": "string"
        }
      ],
      "name": "createProposal",
      "outputs": [],
      "stateMutability": "nonpayable",
      "type": "function"
    },
    {
      "inputs": [
        {
          "internalType": "uint256",
          "name": "proposalId",
          "type": "uint256"
        }
      ],
      "name": "distributeFunds",
      "outputs": [],
      "stateMutability": "nonpayable",
      "type": "function"
    },
    {
      "inputs": [],
      "name": "donate",
      "outputs": [],
      "stateMutability": "payable",
      "type": "function"
    },
    {
      "inputs": [],
      "name": "getAllProposals",
      "outputs": [
        {
          "internalType": "string[]",
          "name": "titles",
          "type": "string[]"
        },
        {
          "internalType": "string[]",
          "name": "descriptions",
          "type": "string[]"
        },
        {
          "internalType": "uint256[]",
          "name": "amountsRequested",
          "type": "uint256[]"
        },
        {
          "internalType": "uint256[]",
          "name": "votesFor",
          "type": "uint256[]"
        },
        {
          "internalType": "uint256[]",
          "name": "votesAgainst",
          "type": "uint256[]"
        },
        {
          "internalType": "bool[]",
          "name": "opens",
          "type": "bool[]"
        },
        {
          "internalType": "bool[]",
          "name": "executeds",
          "type": "bool[]"
        },
        {
          "internalType": "string[]",
          "name": "ipfsHashes",
          "type": "string[]"
        }
      ],
      "stateMutability": "view",
      "type": "function"
    },
    {
      "inputs": [
        {
          "internalType": "uint256",
          "name": "proposalId",
          "type": "uint256"
        }
      ],
      "name": "getProposal",
      "outputs": [
        {
          "internalType": "string",
          "name": "title",
          "type": "string"
        },
        {
          "internalType": "string",
          "name": "description",
          "type": "string"
        },
        {
          "internalType": "uint256",
          "name": "amountRequested",
          "type": "uint256"
        },
        {
          "internalType": "uint256",
          "name": "votesFor",
          "type": "uint256"
        },
        {
          "internalType": "uint256",
          "name": "votesAgainst",
          "type": "uint256"
        },
        {
          "internalType": "bool",
          "name": "open",
          "type": "bool"
        },
        {
          "internalType": "bool",
          "name": "executed",
          "type": "bool"
        },
        {
          "internalType": "string",
          "name": "ipfsHash",
          "type": "string"
        }
      ],
      "stateMutability": "view",
      "type": "function"
    },
    {
      "inputs": [],
      "name": "owner",
      "outputs": [
        {
          "internalType": "address",
          "name": "",
          "type": "address"
        }
      ],
      "stateMutability": "view",
      "type": "function"
    },
    {
      "inputs": [
        {
          "internalType": "uint256",
          "name": "",
          "type": "uint256"
        }
      ],
      "name": "proposals",
      "outputs": [
        {
          "internalType": "string",
          "name": "title",
          "type": "string"
        },
        {
          "internalType": "string",
          "name": "description",
          "type": "string"
        },
        {
          "internalType": "uint256",
          "name": "amountRequested",
          "type": "uint256"
        },
        {
          "internalType": "uint256",
          "name": "votesFor",
          "type": "uint256"
        },
        {
          "internalType": "uint256",
          "name": "votesAgainst",
          "type": "uint256"
        },
        {
          "internalType": "bool",
          "name": "open",
          "type": "bool"
        },
        {
          "internalType": "bool",
          "name": "executed",
          "type": "bool"
        },
        {
          "internalType": "string",
          "name": "ipfsHash",
          "type": "string"
        }
      ],
      "stateMutability": "view",
      "type": "function"
    },
    {
      "inputs": [],
      "name": "totalFunds",
      "outputs": [
        {
          "internalType": "uint256",
          "name": "",
          "type": "uint256"
        }
      ],
      "stateMutability": "view",
      "type": "function"
    },
    {
      "inputs": [
        {
          "internalType": "uint256",
          "name": "proposalId",
          "type": "uint256"
        },
        {
          "internalType": "bool",
          "name": "support",
          "type": "bool"
        }
      ],
      "name": "vote",
      "outputs": [],
      "stateMutability": "nonpayable",
      "type": "function"
    },
    {
      "inputs": [
        {
          "internalType": "uint256",
          "name": "",
          "type": "uint256"
        },
        {
          "internalType": "address",
          "name": "",
          "type": "address"
        }
      ],
      "name": "voters",
      "outputs": [
        {
          "internalType": "bool",
          "name": "",
          "type": "bool"
        }
      ],
      "stateMutability": "view",
      "type": "function"
    }
  ],
  "bytecode": "0x6080604052348015600f57600080fd5b50336000806101000a81548173ffffffffffffffffffffffffffffffffffffffff021916908373ffffffffffffffffffffffffffffffffffffffff16021790555061240b8061005f6000396000f3fe60806040526004361061009c5760003560e01c8063c9d27afe11610064578063c9d27afe146101bc578063cceb68f5146101e5578063e1bfbcbb14610217578063ed88c68e14610240578063f1d8eefc1461024a578063f726f715146102755761009c565b8063013cf08b146100a15780638da5cb5b146100e5578063968ed600146101105780639e3190631461013b578063c7f758a814610178575b600080fd5b3480156100ad57600080fd5b506100c860048036038101906100c391906113cb565b61029e565b6040516100dc9897969594939291906114b2565b60405180910390f35b3480156100f157600080fd5b506100fa6104a8565b6040516101079190611586565b60405180910390f35b34801561011c57600080fd5b506101256104cc565b60405161013291906115a1565b60405180910390f35b34801561014757600080fd5b50610162600480360381019061015d91906115e8565b6104d2565b60405161016f9190611628565b60405180910390f35b34801561018457600080fd5b5061019f600480360381019061019a91906113cb565b610501565b6040516101b39897969594939291906114b2565b60405180910390f35b3480156101c857600080fd5b506101e360048036038101906101de919061166f565b61077a565b005b3480156101f157600080fd5b506101fa610977565b60405161020e989796959493929190611937565b60405180910390f35b34801561022357600080fd5b5061023e60048036038101906102399190611b22565b610f1a565b005b610248611023565b005b34801561025657600080fd5b5061025f6110cf565b60405161026c9190611586565b60405180910390f35b34801561028157600080fd5b5061029c600480360381019061029791906113cb565b6110f5565b005b600281815481106102ae57600080fd5b90600052602060002090600702016000915090508060000180546102d190611c0c565b80601f01602080910402602001604051908101604052809291908181526020018280546102fd90611c0c565b801561034a5780601f1061031f5761010080835404028352916020019161034a565b820191906000526020600020905b81548152906001019060200180831161032d57829003601f168201915b50505050509080600101805461035f90611c0c565b80601f016020809104026020016040519081016040528092919081815260200182805461038b90611c0c565b80156103d85780601f106103ad576101008083540402835291602001916103d8565b820191906000526020600020905b8154815290600101906020018083116103bb57829003601f168201915b5050505050908060020154908060030154908060040154908060050160009054906101000a900460ff16908060050160019054906101000a900460ff169080600601805461042590611c0c565b80601f016020809104026020016040519081016040528092919081815260200182805461045190611c0c565b801561049e5780601f106104735761010080835404028352916020019161049e565b820191906000526020600020905b81548152906001019060200180831161048157829003601f168201915b5050505050905088565b60008054906101000a900473ffffffffffffffffffffffffffffffffffffffff1681565b60015481565b60046020528160005260406000206020528060005260406000206000915091509054906101000a900460ff1681565b606080600080600080600060606002805490508910610555576040517f08c379a000000000000000000000000000000000000000000000000000000000815260040161054c90611c89565b60405180910390fd5b600060028a8154811061056b5761056a611ca9565b5b9060005260206000209060070201905080600001816001018260020154836003015484600401548560050160009054906101000a900460ff168660050160019054906101000a900460ff16876006018780546105c690611c0c565b80601f01602080910402602001604051908101604052809291908181526020018280546105f290611c0c565b801561063f5780601f106106145761010080835404028352916020019161063f565b820191906000526020600020905b81548152906001019060200180831161062257829003601f168201915b5050505050975086805461065290611c0c565b80601f016020809104026020016040519081016040528092919081815260200182805461067e90611c0c565b80156106cb5780601f106106a0576101008083540402835291602001916106cb565b820191906000526020600020905b8154815290600101906020018083116106ae57829003601f168201915b505050505096508080546106de90611c0c565b80601f016020809104026020016040519081016040528092919081815260200182805461070a90611c0c565b80156107575780601f1061072c57610100808354040283529160200191610757565b820191906000526020600020905b81548152906001019060200180831161073a57829003601f168201915b505050505090509850985098509850985098509850985050919395975091939597565b6000600283815481106107905761078f611ca9565b5b906000526020600020906007020190508060050160009054906101000a900460ff166107f1576040517f08c379a00000000000000000000000000000000000000000000000000000000081526004016107e890611d24565b60405180910390fd5b6004600084815260200190815260200160002060003373ffffffffffffffffffffffffffffffffffffffff1673ffffffffffffffffffffffffffffffffffffffff16815260200190815260200160002060009054906101000a900460ff161561088f576040517f08c379a000000000000000000000000000000000000000000000000000000000815260040161088690611d90565b60405180910390fd5b60016004600085815260200190815260200160002060003373ffffffffffffffffffffffffffffffffffffffff1673ffffffffffffffffffffffffffffffffffffffff16815260200190815260200160002060006101000a81548160ff021916908315150217905550811561091d5780600301600081548092919061091390611ddf565b9190505550610938565b80600401600081548092919061093290611ddf565b91905055505b827ff2913dbe661ee2acc4a046d8fbcdc792373bda34c41c6086484b5345e5785e5f338460405161096a929190611e27565b60405180910390a2505050565b606080606080606080606080600060028054905090508067ffffffffffffffff8111156109a7576109a66119f7565b5b6040519080825280602002602001820160405280156109da57816020015b60608152602001906001900390816109c55790505b5098508067ffffffffffffffff8111156109f7576109f66119f7565b5b604051908082528060200260200182016040528015610a2a57816020015b6060815260200190600190039081610a155790505b5097508067ffffffffffffffff811115610a4757610a466119f7565b5b604051908082528060200260200182016040528015610a755781602001602082028036833780820191505090505b5096508067ffffffffffffffff811115610a9257610a916119f7565b5b604051908082528060200260200182016040528015610ac05781602001602082028036833780820191505090505b5095508067ffffffffffffffff811115610add57610adc6119f7565b5b604051908082528060200260200182016040528015610b0b5781602001602082028036833780820191505090505b5094508067ffffffffffffffff811115610b2857610b276119f7565b5b604051908082528060200260200182016040528015610b565781602001602082028036833780820191505090505b5093508067ffffffffffffffff811115610b7357610b726119f7565b5b604051908082528060200260200182016040528015610ba15781602001602082028036833780820191505090505b5092508067ffffffffffffffff811115610bbe57610bbd6119f7565b5b604051908082528060200260200182016040528015610bf157816020015b6060815260200190600190039081610bdc5790505b50915060005b81811015610f0e57600060028281548110610c1557610c14611ca9565b5b90600052602060002090600702019050806000018054610c3490611c0c565b80601f0160208091040260200160405190810160405280929190818152602001828054610c6090611c0c565b8015610cad5780601f10610c8257610100808354040283529160200191610cad565b820191906000526020600020905b815481529060010190602001808311610c9057829003601f168201915b50505050508b8381518110610cc557610cc4611ca9565b5b6020026020010181905250806001018054610cdf90611c0c565b80601f0160208091040260200160405190810160405280929190818152602001828054610d0b90611c0c565b8015610d585780601f10610d2d57610100808354040283529160200191610d58565b820191906000526020600020905b815481529060010190602001808311610d3b57829003601f168201915b50505050508a8381518110610d7057610d6f611ca9565b5b60200260200101819052508060020154898381518110610d9357610d92611ca9565b5b6020026020010181815250508060030154888381518110610db757610db6611ca9565b5b6020026020010181815250508060040154878381518110610ddb57610dda611ca9565b5b6020026020010181815250508060050160009054906101000a900460ff16868381518110610e0c57610e0b611ca9565b5b6020026020010190151590811515815250508060050160019054906101000a900460ff16858381518110610e4357610e42611ca9565b5b602002602001019015159081151581525050806006018054610e6490611c0c565b80601f0160208091040260200160405190810160405280929190818152602001828054610e9090611c0c565b8015610edd5780601f10610eb257610100808354040283529160200191610edd565b820191906000526020600020905b815481529060010190602001808311610ec057829003601f168201915b5050505050848381518110610ef557610ef4611ca9565b5b6020026020010181905250508080600101915050610bf7565b50509091929394959697565b600154821115610f5f576040517f08c379a0000000000000000000000000000000000000000000000000000000008152600401610f5690611e9c565b60405180910390fd5b60006002600181600181540180825580915050039060005260206000209060070201905083816001019081610f949190612068565b5082816002018190555060018160050160006101000a81548160ff02191690831515021790555081816006019081610fcc9190612068565b506001600280549050610fdf919061213a565b7f3dc4f7aeeb6fff4cd85fdf034abceedb0c2975037691998d166324917a66321086868686604051611014949392919061216e565b60405180910390a25050505050565b60003411611066576040517f08c379a000000000000000000000000000000000000000000000000000000000815260040161105d90612214565b60405180910390fd5b34600160008282546110789190612234565b925050819055503373ffffffffffffffffffffffffffffffffffffffff167f264f630d9efa0d07053a31163641d9fcc0adafc9d9e76f1c37c2ce3a558d2c52346040516110c591906115a1565b60405180910390a2565b600360009054906101000a900473ffffffffffffffffffffffffffffffffffffffff1681565b60008054906101000a900473ffffffffffffffffffffffffffffffffffffffff1673ffffffffffffffffffffffffffffffffffffffff163373ffffffffffffffffffffffffffffffffffffffff1614611183576040517f08c379a000000000000000000000000000000000000000000000000000000000815260040161117a906122b4565b60405180910390fd5b60006002828154811061119957611198611ca9565b5b906000526020600020906007020190508060050160009054906101000a900460ff166111fa576040517f08c379a00000000000000000000000000000000000000000000000000000000081526004016111f190612320565b60405180910390fd5b8060050160019054906101000a900460ff161561124c576040517f08c379a00000000000000000000000000000000000000000000000000000000081526004016112439061238c565b60405180910390fd5b8060040154816003015411156113605760008054906101000a900473ffffffffffffffffffffffffffffffffffffffff1673ffffffffffffffffffffffffffffffffffffffff166108fc82600201549081150290604051600060405180830381858888f193505050501580156112c6573d6000803e3d6000fd5b5060018160050160016101000a81548160ff0219169083151502179055508060020154600160008282546112fa919061213a565b92505081905550817f9f5926601e7fc353505f05fae61282ae5d67b716f95656849456e6aa7bbbbb5f60008054906101000a900473ffffffffffffffffffffffffffffffffffffffff1683600201546040516113579291906123ac565b60405180910390a25b60008160050160006101000a81548160ff0219169083151502179055505050565b6000604051905090565b600080fd5b600080fd5b6000819050919050565b6113a881611395565b81146113b357600080fd5b50565b6000813590506113c58161139f565b92915050565b6000602082840312156113e1576113e061138b565b5b60006113ef848285016113b6565b91505092915050565b600081519050919050565b600082825260208201905092915050565b60005b83811015611432578082015181840152602081019050611417565b60008484015250505050565b6000601f19601f8301169050919050565b600061145a826113f8565b6114648185611403565b9350611474818560208601611414565b61147d8161143e565b840191505092915050565b61149181611395565b82525050565b60008115159050919050565b6114ac81611497565b82525050565b60006101008201905081810360008301526114cd818b61144f565b905081810360208301526114e1818a61144f565b90506114f06040830189611488565b6114fd6060830188611488565b61150a6080830187611488565b61151760a08301866114a3565b61152460c08301856114a3565b81810360e0830152611536818461144f565b90509998505050505050505050565b600073ffffffffffffffffffffffffffffffffffffffff82169050919050565b600061157082611545565b9050919050565b61158081611565565b82525050565b600060208201905061159b6000830184611577565b92915050565b60006020820190506115b66000830184611488565b92915050565b6115c581611565565b81146115d057600080fd5b50565b6000813590506115e2816115bc565b92915050565b600080604083850312156115ff576115fe61138b565b5b600061160d858286016113b6565b925050602061161e858286016115d3565b9150509250929050565b600060208201905061163d60008301846114a3565b92915050565b61164c81611497565b811461165757600080fd5b50565b60008135905061166981611643565b92915050565b600080604083850312156116865761168561138b565b5b6000611694858286016113b6565b92505060206116a58582860161165a565b9150509250929050565b600081519050919050565b600082825260208201905092915050565b6000819050602082019050919050565b600082825260208201905092915050565b60006116f7826113f8565b61170181856116db565b9350611711818560208601611414565b61171a8161143e565b840191505092915050565b600061173183836116ec565b905092915050565b6000602082019050919050565b6000611751826116af565b61175b81856116ba565b93508360208202850161176d856116cb565b8060005b858110156117a9578484038952815161178a8582611725565b945061179583611739565b925060208a01995050600181019050611771565b50829750879550505050505092915050565b600081519050919050565b600082825260208201905092915050565b6000819050602082019050919050565b6117f081611395565b82525050565b600061180283836117e7565b60208301905092915050565b6000602082019050919050565b6000611826826117bb565b61183081856117c6565b935061183b836117d7565b8060005b8381101561186c57815161185388826117f6565b975061185e8361180e565b92505060018101905061183f565b5085935050505092915050565b600081519050919050565b600082825260208201905092915050565b6000819050602082019050919050565b6118ae81611497565b82525050565b60006118c083836118a5565b60208301905092915050565b6000602082019050919050565b60006118e482611879565b6118ee8185611884565b93506118f983611895565b8060005b8381101561192a57815161191188826118b4565b975061191c836118cc565b9250506001810190506118fd565b5085935050505092915050565b6000610100820190508181036000830152611952818b611746565b90508181036020830152611966818a611746565b9050818103604083015261197a818961181b565b9050818103606083015261198e818861181b565b905081810360808301526119a2818761181b565b905081810360a08301526119b681866118d9565b905081810360c08301526119ca81856118d9565b905081810360e08301526119de8184611746565b90509998505050505050505050565b600080fd5b600080fd5b7f4e487b7100000000000000000000000000000000000000000000000000000000600052604160045260246000fd5b611a2f8261143e565b810181811067ffffffffffffffff82111715611a4e57611a4d6119f7565b5b80604052505050565b6000611a61611381565b9050611a6d8282611a26565b919050565b600067ffffffffffffffff821115611a8d57611a8c6119f7565b5b611a968261143e565b9050602081019050919050565b82818337600083830152505050565b6000611ac5611ac084611a72565b611a57565b905082815260208101848484011115611ae157611ae06119f2565b5b611aec848285611aa3565b509392505050565b600082601f830112611b0957611b086119ed565b5b8135611b19848260208601611ab2565b91505092915050565b60008060008060808587031215611b3c57611b3b61138b565b5b600085013567ffffffffffffffff811115611b5a57611b59611390565b5b611b6687828801611af4565b945050602085013567ffffffffffffffff811115611b8757611b86611390565b5b611b9387828801611af4565b9350506040611ba4878288016113b6565b925050606085013567ffffffffffffffff811115611bc557611bc4611390565b5b611bd187828801611af4565b91505092959194509250565b7f4e487b7100000000000000000000000000000000000000000000000000000000600052602260045260246000fd5b60006002820490506001821680611c2457607f821691505b602082108103611c3757611c36611bdd565b5b50919050565b7f496e76616c69642070726f706f73616c20494400000000000000000000000000600082015250565b6000611c73601383611403565b9150611c7e82611c3d565b602082019050919050565b60006020820190508181036000830152611ca281611c66565b9050919050565b7f4e487b7100000000000000000000000000000000000000000000000000000000600052603260045260246000fd5b7f566f74696e6720636c6f73656400000000000000000000000000000000000000600082015250565b6000611d0e600d83611403565b9150611d1982611cd8565b602082019050919050565b60006020820190508181036000830152611d3d81611d01565b9050919050565b7f416c726561647920766f74656400000000000000000000000000000000000000600082015250565b6000611d7a600d83611403565b9150611d8582611d44565b602082019050919050565b60006020820190508181036000830152611da981611d6d565b9050919050565b7f4e487b7100000000000000000000000000000000000000000000000000000000600052601160045260246000fd5b6000611dea82611395565b91507fffffffffffffffffffffffffffffffffffffffffffffffffffffffffffffffff8203611e1c57611e1b611db0565b5b600182019050919050565b6000604082019050611e3c6000830185611577565b611e4960208301846114a3565b9392505050565b7f4e6f7420656e6f7567682066756e647300000000000000000000000000000000600082015250565b6000611e86601083611403565b9150611e9182611e50565b602082019050919050565b60006020820190508181036000830152611eb581611e79565b9050919050565b60008190508160005260206000209050919050565b60006020601f8301049050919050565b600082821b905092915050565b600060088302611f1e7fffffffffffffffffffffffffffffffffffffffffffffffffffffffffffffffff82611ee1565b611f288683611ee1565b95508019841693508086168417925050509392505050565b6000819050919050565b6000611f65611f60611f5b84611395565b611f40565b611395565b9050919050565b6000819050919050565b611f7f83611f4a565b611f93611f8b82611f6c565b848454611eee565b825550505050565b600090565b611fa8611f9b565b611fb3818484611f76565b505050565b5b81811015611fd757611fcc600082611fa0565b600181019050611fb9565b5050565b601f82111561201c57611fed81611ebc565b611ff684611ed1565b81016020851015612005578190505b61201961201185611ed1565b830182611fb8565b50505b505050565b600082821c905092915050565b600061203f60001984600802612021565b1980831691505092915050565b6000612058838361202e565b9150826002028217905092915050565b612071826113f8565b67ffffffffffffffff81111561208a576120896119f7565b5b6120948254611c0c565b61209f828285611fdb565b600060209050601f8311600181146120d257600084156120c0578287015190505b6120ca858261204c565b865550612132565b601f1984166120e086611ebc565b60005b82811015612108578489015182556001820191506020850194506020810190506120e3565b868310156121255784890151612121601f89168261202e565b8355505b6001600288020188555050505b505050505050565b600061214582611395565b915061215083611395565b925082820390508181111561216857612167611db0565b5b92915050565b60006080820190508181036000830152612188818761144f565b9050818103602083015261219c818661144f565b90506121ab6040830185611488565b81810360608301526121bd818461144f565b905095945050505050565b7f4d7573742073656e642045544800000000000000000000000000000000000000600082015250565b60006121fe600d83611403565b9150612209826121c8565b602082019050919050565b6000602082019050818103600083015261222d816121f1565b9050919050565b600061223f82611395565b915061224a83611395565b925082820190508082111561226257612261611db0565b5b92915050565b7f4e6f7420617574686f72697a6564000000000000000000000000000000000000600082015250565b600061229e600e83611403565b91506122a982612268565b602082019050919050565b600060208201905081810360008301526122cd81612291565b9050919050565b7f50726f706f73616c20636c6f7365640000000000000000000000000000000000600082015250565b600061230a600f83611403565b9150612315826122d4565b602082019050919050565b60006020820190508181036000830152612339816122fd565b9050919050565b7f416c726561647920657865637574656400000000000000000000000000000000600082015250565b6000612376601083611403565b915061238182612340565b602082019050919050565b600060208201905081810360008301526123a581612369565b9050919050565b60006040820190506123c16000830185611577565b6123ce6020830184611488565b939250505056fea2646970667358221220031baae53f6ae73ae773fd5759d40e419124bf72dd9035da3f2a42203333eb6d64736f6c634300081c0033",
  "linkReferences": {},
  "deployedLinkReferences": {}
}