{
  "_format": "hh-sol-artifact-1",
  "contractName": "Funds",
  "sourceName": "contracts/fonduri.sol",
  "abi": [
    {
      "inputs": [],
      "stateMutability": "nonpayable",
      "type": "constructor"
    },
    {
      "anonymous": false,
      "inputs": [
        {
          "indexed": true,
          "internalType": "address",
          "name": "donor",
          "type": "address"
        },
        {
          "indexed": false,
          "internalType": "uint256",
          "name": "amount",
          "type": "uint256"
        }
      ],
      "name": "DonationReceived",
      "type": "event"
    },
    {
      "anonymous": false,
      "inputs": [
        {
          "indexed": true,
          "internalType": "uint256",
          "name": "proposalId",
          "type": "uint256"
        },
        {
          "indexed": false,
          "internalType": "address",
          "name": "recipient",
          "type": "address"
        },
        {
          "indexed": false,
          "internalType": "uint256",
          "name": "amount",
          "type": "uint256"
        }
      ],
      "name": "FundsDistributed",
      "type": "event"
    },
    {
      "anonymous": false,
      "inputs": [
        {
          "indexed": true,
          "internalType": "address",
          "name": "account",
          "type": "address"
        },
        {
          "indexed": false,
          "internalType": "uint256",
          "name": "amount",
          "type": "uint256"
        }
      ],
      "name": "FundsWithdrawn",
      "type": "event"
    },
    {
      "anonymous": false,
      "inputs": [
        {
          "indexed": true,
          "internalType": "uint256",
          "name": "proposalId",
          "type": "uint256"
        },
        {
          "indexed": false,
          "internalType": "string",
          "name": "description",
          "type": "string"
        },
        {
          "indexed": false,
          "internalType": "uint256",
          "name": "amountRequested",
          "type": "uint256"
        },
        {
          "indexed": false,
          "internalType": "string",
          "name": "ipfsHash",
          "type": "string"
        }
      ],
      "name": "ProposalCreated",
      "type": "event"
    },
    {
      "anonymous": false,
      "inputs": [
        {
          "indexed": true,
          "internalType": "uint256",
          "name": "proposalId",
          "type": "uint256"
        },
        {
          "indexed": false,
          "internalType": "address",
          "name": "voter",
          "type": "address"
        },
        {
          "indexed": false,
          "internalType": "bool",
          "name": "support",
          "type": "bool"
        }
      ],
      "name": "Voted",
      "type": "event"
    },
    {
      "inputs": [
        {
          "internalType": "uint256",
          "name": "total",
          "type": "uint256"
        },
        {
          "internalType": "uint256",
          "name": "percentage",
          "type": "uint256"
        }
      ],
      "name": "calculatePercentage",
      "outputs": [
        {
          "internalType": "uint256",
          "name": "",
          "type": "uint256"
        }
      ],
      "stateMutability": "pure",
      "type": "function"
    },
    {
      "inputs": [],
      "name": "charityContractAddress",
      "outputs": [
        {
          "internalType": "address",
          "name": "",
          "type": "address"
        }
      ],
      "stateMutability": "view",
      "type": "function"
    },
    {
      "inputs": [
        {
          "internalType": "string",
          "name": "description",
          "type": "string"
        },
        {
          "internalType": "uint256",
          "name": "amountRequested",
          "type": "uint256"
        },
        {
          "internalType": "string",
          "name": "ipfsHash",
          "type": "string"
        }
      ],
      "name": "createProposal",
      "outputs": [],
      "stateMutability": "nonpayable",
      "type": "function"
    },
    {
      "inputs": [
        {
          "internalType": "uint256",
          "name": "proposalId",
          "type": "uint256"
        }
      ],
      "name": "distributeFunds",
      "outputs": [],
      "stateMutability": "nonpayable",
      "type": "function"
    },
    {
      "inputs": [],
      "name": "donate",
      "outputs": [],
      "stateMutability": "payable",
      "type": "function"
    },
    {
      "inputs": [
        {
          "internalType": "uint256",
          "name": "amount",
          "type": "uint256"
        }
      ],
      "name": "donateToCharity",
      "outputs": [],
      "stateMutability": "nonpayable",
      "type": "function"
    },
    {
      "inputs": [
        {
          "internalType": "uint256",
          "name": "proposalId",
          "type": "uint256"
        }
      ],
      "name": "getProposal",
      "outputs": [
        {
          "internalType": "string",
          "name": "",
          "type": "string"
        },
        {
          "internalType": "uint256",
          "name": "",
          "type": "uint256"
        },
        {
          "internalType": "uint256",
          "name": "",
          "type": "uint256"
        },
        {
          "internalType": "uint256",
          "name": "",
          "type": "uint256"
        },
        {
          "internalType": "bool",
          "name": "",
          "type": "bool"
        },
        {
          "internalType": "bool",
          "name": "",
          "type": "bool"
        },
        {
          "internalType": "string",
          "name": "",
          "type": "string"
        }
      ],
      "stateMutability": "view",
      "type": "function"
    },
    {
      "inputs": [],
      "name": "owner",
      "outputs": [
        {
          "internalType": "address",
          "name": "",
          "type": "address"
        }
      ],
      "stateMutability": "view",
      "type": "function"
    },
    {
      "inputs": [],
      "name": "proposalCount",
      "outputs": [
        {
          "internalType": "uint256",
          "name": "",
          "type": "uint256"
        }
      ],
      "stateMutability": "view",
      "type": "function"
    },
    {
      "inputs": [
        {
          "internalType": "uint256",
          "name": "",
          "type": "uint256"
        }
      ],
      "name": "proposals",
      "outputs": [
        {
          "internalType": "string",
          "name": "description",
          "type": "string"
        },
        {
          "internalType": "uint256",
          "name": "amountRequested",
          "type": "uint256"
        },
        {
          "internalType": "uint256",
          "name": "votesFor",
          "type": "uint256"
        },
        {
          "internalType": "uint256",
          "name": "votesAgainst",
          "type": "uint256"
        },
        {
          "internalType": "bool",
          "name": "open",
          "type": "bool"
        },
        {
          "internalType": "bool",
          "name": "executed",
          "type": "bool"
        },
        {
          "internalType": "string",
          "name": "ipfsHash",
          "type": "string"
        }
      ],
      "stateMutability": "view",
      "type": "function"
    },
    {
      "inputs": [
        {
          "internalType": "address",
          "name": "_charityContract",
          "type": "address"
        }
      ],
      "name": "setCharityContract",
      "outputs": [],
      "stateMutability": "nonpayable",
      "type": "function"
    },
    {
      "inputs": [],
      "name": "totalFunds",
      "outputs": [
        {
          "internalType": "uint256",
          "name": "",
          "type": "uint256"
        }
      ],
      "stateMutability": "view",
      "type": "function"
    },
    {
      "inputs": [
        {
          "internalType": "uint256",
          "name": "proposalId",
          "type": "uint256"
        },
        {
          "internalType": "bool",
          "name": "support",
          "type": "bool"
        }
      ],
      "name": "vote",
      "outputs": [],
      "stateMutability": "nonpayable",
      "type": "function"
    },
    {
      "inputs": [
        {
          "internalType": "uint256",
          "name": "amount",
          "type": "uint256"
        }
      ],
      "name": "withdraw",
      "outputs": [],
      "stateMutability": "nonpayable",
      "type": "function"
    }
  ],
  "bytecode": "0x6080604052348015600f57600080fd5b50336000806101000a81548173ffffffffffffffffffffffffffffffffffffffff021916908373ffffffffffffffffffffffffffffffffffffffff160217905550611e068061005f6000396000f3fe6080604052600436106100dd5760003560e01c8063beeaee911161007f578063da35c66411610059578063da35c664146102c8578063ed88c68e146102f3578063f1d8eefc146102fd578063f726f71514610328576100dd565b8063beeaee9114610233578063c7f758a81461025c578063c9d27afe1461029f576100dd565b806356d9ef34116100bb57806356d9ef341461018b5780638da5cb5b146101b4578063968ed600146101df578063bcb82dbc1461020a576100dd565b8063013cf08b146100e25780632133e3b9146101255780632e1a7d4d14610162575b600080fd5b3480156100ee57600080fd5b50610109600480360381019061010491906110da565b610351565b60405161011c97969594939291906111c1565b60405180910390f35b34801561013157600080fd5b5061014c6004803603810190610147919061123e565b6104bd565b604051610159919061127e565b60405180910390f35b34801561016e57600080fd5b50610189600480360381019061018491906110da565b6104df565b005b34801561019757600080fd5b506101b260048036038101906101ad91906113ce565b6105ba565b005b3480156101c057600080fd5b506101c9610754565b6040516101d6919061149a565b60405180910390f35b3480156101eb57600080fd5b506101f4610778565b604051610201919061127e565b60405180910390f35b34801561021657600080fd5b50610231600480360381019061022c91906114e1565b61077e565b005b34801561023f57600080fd5b5061025a600480360381019061025591906110da565b610850565b005b34801561026857600080fd5b50610283600480360381019061027e91906110da565b6109db565b60405161029697969594939291906111c1565b60405180910390f35b3480156102ab57600080fd5b506102c660048036038101906102c1919061153a565b610b6b565b005b3480156102d457600080fd5b506102dd610d3b565b6040516102ea919061127e565b60405180910390f35b6102fb610d41565b005b34801561030957600080fd5b50610312610ded565b60405161031f919061149a565b60405180910390f35b34801561033457600080fd5b5061034f600480360381019061034a91906110da565b610e13565b005b6002602052806000526040600020600091509050806000018054610374906115a9565b80601f01602080910402602001604051908101604052809291908181526020018280546103a0906115a9565b80156103ed5780601f106103c2576101008083540402835291602001916103ed565b820191906000526020600020905b8154815290600101906020018083116103d057829003601f168201915b5050505050908060010154908060020154908060030154908060040160009054906101000a900460ff16908060040160019054906101000a900460ff169080600601805461043a906115a9565b80601f0160208091040260200160405190810160405280929190818152602001828054610466906115a9565b80156104b35780601f10610488576101008083540402835291602001916104b3565b820191906000526020600020905b81548152906001019060200180831161049657829003601f168201915b5050505050905087565b6000606482846104cd9190611609565b6104d7919061167a565b905092915050565b47811115610522576040517f08c379a0000000000000000000000000000000000000000000000000000000008152600401610519906116f7565b60405180910390fd5b3373ffffffffffffffffffffffffffffffffffffffff166108fc829081150290604051600060405180830381858888f19350505050158015610568573d6000803e3d6000fd5b503373ffffffffffffffffffffffffffffffffffffffff167feaff4b37086828766ad3268786972c0cd24259d4c87a80f9d3963a3c3d999b0d826040516105af919061127e565b60405180910390a250565b60008054906101000a900473ffffffffffffffffffffffffffffffffffffffff1673ffffffffffffffffffffffffffffffffffffffff163373ffffffffffffffffffffffffffffffffffffffff1614610648576040517f08c379a000000000000000000000000000000000000000000000000000000000815260040161063f90611763565b60405180910390fd5b60015482111561068d576040517f08c379a0000000000000000000000000000000000000000000000000000000008152600401610684906116f7565b60405180910390fd5b600060026000600360008154809291906106a690611783565b9190505581526020019081526020016000209050838160000190816106cb9190611977565b5082816001018190555060018160040160006101000a81548160ff021916908315150217905550818160060190816107039190611977565b5060016003546107139190611a49565b7f18ed699f869a4ee351b5a3f3fc22ed99a22644d8e4b199afb1d226a02167c66d85858560405161074693929190611a7d565b60405180910390a250505050565b60008054906101000a900473ffffffffffffffffffffffffffffffffffffffff1681565b60015481565b60008054906101000a900473ffffffffffffffffffffffffffffffffffffffff1673ffffffffffffffffffffffffffffffffffffffff163373ffffffffffffffffffffffffffffffffffffffff161461080c576040517f08c379a000000000000000000000000000000000000000000000000000000000815260040161080390611763565b60405180910390fd5b80600460006101000a81548173ffffffffffffffffffffffffffffffffffffffff021916908373ffffffffffffffffffffffffffffffffffffffff16021790555050565b60008054906101000a900473ffffffffffffffffffffffffffffffffffffffff1673ffffffffffffffffffffffffffffffffffffffff163373ffffffffffffffffffffffffffffffffffffffff16146108de576040517f08c379a00000000000000000000000000000000000000000000000000000000081526004016108d590611763565b60405180910390fd5b600073ffffffffffffffffffffffffffffffffffffffff16600460009054906101000a900473ffffffffffffffffffffffffffffffffffffffff1673ffffffffffffffffffffffffffffffffffffffff160361096f576040517f08c379a000000000000000000000000000000000000000000000000000000000815260040161096690611b0e565b60405180910390fd5b600460009054906101000a900473ffffffffffffffffffffffffffffffffffffffff1673ffffffffffffffffffffffffffffffffffffffff166108fc829081150290604051600060405180830381858888f193505050501580156109d7573d6000803e3d6000fd5b5050565b6060600080600080600060606000600260008a81526020019081526020016000209050806000018160010154826002015483600301548460040160009054906101000a900460ff168560040160019054906101000a900460ff1686600601868054610a45906115a9565b80601f0160208091040260200160405190810160405280929190818152602001828054610a71906115a9565b8015610abe5780601f10610a9357610100808354040283529160200191610abe565b820191906000526020600020905b815481529060010190602001808311610aa157829003601f168201915b50505050509650808054610ad1906115a9565b80601f0160208091040260200160405190810160405280929190818152602001828054610afd906115a9565b8015610b4a5780601f10610b1f57610100808354040283529160200191610b4a565b820191906000526020600020905b815481529060010190602001808311610b2d57829003601f168201915b50505050509050975097509750975097509750975050919395979092949650565b60006002600084815260200190815260200160002090508060040160009054906101000a900460ff16610bd3576040517f08c379a0000000000000000000000000000000000000000000000000000000008152600401610bca90611b7a565b60405180910390fd5b8060050160003373ffffffffffffffffffffffffffffffffffffffff1673ffffffffffffffffffffffffffffffffffffffff16815260200190815260200160002060009054906101000a900460ff1615610c62576040517f08c379a0000000000000000000000000000000000000000000000000000000008152600401610c5990611be6565b60405180910390fd5b60018160050160003373ffffffffffffffffffffffffffffffffffffffff1673ffffffffffffffffffffffffffffffffffffffff16815260200190815260200160002060006101000a81548160ff0219169083151502179055508115610ce157806002016000815480929190610cd790611783565b9190505550610cfc565b806003016000815480929190610cf690611783565b91905055505b827ff2913dbe661ee2acc4a046d8fbcdc792373bda34c41c6086484b5345e5785e5f3384604051610d2e929190611c06565b60405180910390a2505050565b60035481565b60003411610d84576040517f08c379a0000000000000000000000000000000000000000000000000000000008152600401610d7b90611c7b565b60405180910390fd5b3460016000828254610d969190611c9b565b925050819055503373ffffffffffffffffffffffffffffffffffffffff167f264f630d9efa0d07053a31163641d9fcc0adafc9d9e76f1c37c2ce3a558d2c5234604051610de3919061127e565b60405180910390a2565b600460009054906101000a900473ffffffffffffffffffffffffffffffffffffffff1681565b60008054906101000a900473ffffffffffffffffffffffffffffffffffffffff1673ffffffffffffffffffffffffffffffffffffffff163373ffffffffffffffffffffffffffffffffffffffff1614610ea1576040517f08c379a0000000000000000000000000000000000000000000000000000000008152600401610e9890611763565b60405180910390fd5b60006002600083815260200190815260200160002090508060040160009054906101000a900460ff16610f09576040517f08c379a0000000000000000000000000000000000000000000000000000000008152600401610f0090611d1b565b60405180910390fd5b8060040160019054906101000a900460ff1615610f5b576040517f08c379a0000000000000000000000000000000000000000000000000000000008152600401610f5290611d87565b60405180910390fd5b80600301548160020154111561106f5760008054906101000a900473ffffffffffffffffffffffffffffffffffffffff1673ffffffffffffffffffffffffffffffffffffffff166108fc82600101549081150290604051600060405180830381858888f19350505050158015610fd5573d6000803e3d6000fd5b5060018160040160016101000a81548160ff0219169083151502179055508060010154600160008282546110099190611a49565b92505081905550817f9f5926601e7fc353505f05fae61282ae5d67b716f95656849456e6aa7bbbbb5f60008054906101000a900473ffffffffffffffffffffffffffffffffffffffff168360010154604051611066929190611da7565b60405180910390a25b60008160040160006101000a81548160ff0219169083151502179055505050565b6000604051905090565b600080fd5b600080fd5b6000819050919050565b6110b7816110a4565b81146110c257600080fd5b50565b6000813590506110d4816110ae565b92915050565b6000602082840312156110f0576110ef61109a565b5b60006110fe848285016110c5565b91505092915050565b600081519050919050565b600082825260208201905092915050565b60005b83811015611141578082015181840152602081019050611126565b60008484015250505050565b6000601f19601f8301169050919050565b600061116982611107565b6111738185611112565b9350611183818560208601611123565b61118c8161114d565b840191505092915050565b6111a0816110a4565b82525050565b60008115159050919050565b6111bb816111a6565b82525050565b600060e08201905081810360008301526111db818a61115e565b90506111ea6020830189611197565b6111f76040830188611197565b6112046060830187611197565b61121160808301866111b2565b61121e60a08301856111b2565b81810360c0830152611230818461115e565b905098975050505050505050565b600080604083850312156112555761125461109a565b5b6000611263858286016110c5565b9250506020611274858286016110c5565b9150509250929050565b60006020820190506112936000830184611197565b92915050565b600080fd5b600080fd5b7f4e487b7100000000000000000000000000000000000000000000000000000000600052604160045260246000fd5b6112db8261114d565b810181811067ffffffffffffffff821117156112fa576112f96112a3565b5b80604052505050565b600061130d611090565b905061131982826112d2565b919050565b600067ffffffffffffffff821115611339576113386112a3565b5b6113428261114d565b9050602081019050919050565b82818337600083830152505050565b600061137161136c8461131e565b611303565b90508281526020810184848401111561138d5761138c61129e565b5b61139884828561134f565b509392505050565b600082601f8301126113b5576113b4611299565b5b81356113c584826020860161135e565b91505092915050565b6000806000606084860312156113e7576113e661109a565b5b600084013567ffffffffffffffff8111156114055761140461109f565b5b611411868287016113a0565b9350506020611422868287016110c5565b925050604084013567ffffffffffffffff8111156114435761144261109f565b5b61144f868287016113a0565b9150509250925092565b600073ffffffffffffffffffffffffffffffffffffffff82169050919050565b600061148482611459565b9050919050565b61149481611479565b82525050565b60006020820190506114af600083018461148b565b92915050565b6114be81611479565b81146114c957600080fd5b50565b6000813590506114db816114b5565b92915050565b6000602082840312156114f7576114f661109a565b5b6000611505848285016114cc565b91505092915050565b611517816111a6565b811461152257600080fd5b50565b6000813590506115348161150e565b92915050565b600080604083850312156115515761155061109a565b5b600061155f858286016110c5565b925050602061157085828601611525565b9150509250929050565b7f4e487b7100000000000000000000000000000000000000000000000000000000600052602260045260246000fd5b600060028204905060018216806115c157607f821691505b6020821081036115d4576115d361157a565b5b50919050565b7f4e487b7100000000000000000000000000000000000000000000000000000000600052601160045260246000fd5b6000611614826110a4565b915061161f836110a4565b925082820261162d816110a4565b91508282048414831517611644576116436115da565b5b5092915050565b7f4e487b7100000000000000000000000000000000000000000000000000000000600052601260045260246000fd5b6000611685826110a4565b9150611690836110a4565b9250826116a05761169f61164b565b5b828204905092915050565b7f4e6f7420656e6f7567682066756e647300000000000000000000000000000000600082015250565b60006116e1601083611112565b91506116ec826116ab565b602082019050919050565b60006020820190508181036000830152611710816116d4565b9050919050565b7f4e6f7420617574686f72697a6564000000000000000000000000000000000000600082015250565b600061174d600e83611112565b915061175882611717565b602082019050919050565b6000602082019050818103600083015261177c81611740565b9050919050565b600061178e826110a4565b91507fffffffffffffffffffffffffffffffffffffffffffffffffffffffffffffffff82036117c0576117bf6115da565b5b600182019050919050565b60008190508160005260206000209050919050565b60006020601f8301049050919050565b600082821b905092915050565b60006008830261182d7fffffffffffffffffffffffffffffffffffffffffffffffffffffffffffffffff826117f0565b61183786836117f0565b95508019841693508086168417925050509392505050565b6000819050919050565b600061187461186f61186a846110a4565b61184f565b6110a4565b9050919050565b6000819050919050565b61188e83611859565b6118a261189a8261187b565b8484546117fd565b825550505050565b600090565b6118b76118aa565b6118c2818484611885565b505050565b5b818110156118e6576118db6000826118af565b6001810190506118c8565b5050565b601f82111561192b576118fc816117cb565b611905846117e0565b81016020851015611914578190505b611928611920856117e0565b8301826118c7565b50505b505050565b600082821c905092915050565b600061194e60001984600802611930565b1980831691505092915050565b6000611967838361193d565b9150826002028217905092915050565b61198082611107565b67ffffffffffffffff811115611999576119986112a3565b5b6119a382546115a9565b6119ae8282856118ea565b600060209050601f8311600181146119e157600084156119cf578287015190505b6119d9858261195b565b865550611a41565b601f1984166119ef866117cb565b60005b82811015611a17578489015182556001820191506020850194506020810190506119f2565b86831015611a345784890151611a30601f89168261193d565b8355505b6001600288020188555050505b505050505050565b6000611a54826110a4565b9150611a5f836110a4565b9250828203905081811115611a7757611a766115da565b5b92915050565b60006060820190508181036000830152611a97818661115e565b9050611aa66020830185611197565b8181036040830152611ab8818461115e565b9050949350505050565b7f4368617269747920636f6e7472616374206e6f74207365740000000000000000600082015250565b6000611af8601883611112565b9150611b0382611ac2565b602082019050919050565b60006020820190508181036000830152611b2781611aeb565b9050919050565b7f566f74696e6720636c6f73656400000000000000000000000000000000000000600082015250565b6000611b64600d83611112565b9150611b6f82611b2e565b602082019050919050565b60006020820190508181036000830152611b9381611b57565b9050919050565b7f416c726561647920766f74656400000000000000000000000000000000000000600082015250565b6000611bd0600d83611112565b9150611bdb82611b9a565b602082019050919050565b60006020820190508181036000830152611bff81611bc3565b9050919050565b6000604082019050611c1b600083018561148b565b611c2860208301846111b2565b9392505050565b7f4d7573742073656e642045544800000000000000000000000000000000000000600082015250565b6000611c65600d83611112565b9150611c7082611c2f565b602082019050919050565b60006020820190508181036000830152611c9481611c58565b9050919050565b6000611ca6826110a4565b9150611cb1836110a4565b9250828201905080821115611cc957611cc86115da565b5b92915050565b7f50726f706f73616c20636c6f7365640000000000000000000000000000000000600082015250565b6000611d05600f83611112565b9150611d1082611ccf565b602082019050919050565b60006020820190508181036000830152611d3481611cf8565b9050919050565b7f416c726561647920657865637574656400000000000000000000000000000000600082015250565b6000611d71601083611112565b9150611d7c82611d3b565b602082019050919050565b60006020820190508181036000830152611da081611d64565b9050919050565b6000604082019050611dbc600083018561148b565b611dc96020830184611197565b939250505056fea264697066735822122048adbe4e7fc4040340e447d8c02c3551f6b91f8d43dedf3d583528315c80b84864736f6c634300081c0033",
  "linkReferences": {},
  "deployedLinkReferences": {}
}