{
  "_format": "hh-sol-artifact-1",
  "contractName": "Funds",
  "sourceName": "contracts/fonduri.sol",
  "abi": [
    {
      "inputs": [],
      "stateMutability": "nonpayable",
      "type": "constructor"
    },
    {
      "anonymous": false,
      "inputs": [
        {
          "indexed": true,
          "internalType": "address",
          "name": "donor",
          "type": "address"
        },
        {
          "indexed": false,
          "internalType": "uint256",
          "name": "amount",
          "type": "uint256"
        }
      ],
      "name": "DonationReceived",
      "type": "event"
    },
    {
      "anonymous": false,
      "inputs": [
        {
          "indexed": true,
          "internalType": "uint256",
          "name": "proposalId",
          "type": "uint256"
        },
        {
          "indexed": false,
          "internalType": "address",
          "name": "recipient",
          "type": "address"
        },
        {
          "indexed": false,
          "internalType": "uint256",
          "name": "amount",
          "type": "uint256"
        }
      ],
      "name": "FundsDistributed",
      "type": "event"
    },
    {
      "anonymous": false,
      "inputs": [
        {
          "indexed": true,
          "internalType": "address",
          "name": "account",
          "type": "address"
        },
        {
          "indexed": false,
          "internalType": "uint256",
          "name": "amount",
          "type": "uint256"
        }
      ],
      "name": "FundsWithdrawn",
      "type": "event"
    },
    {
      "anonymous": false,
      "inputs": [
        {
          "indexed": true,
          "internalType": "uint256",
          "name": "proposalId",
          "type": "uint256"
        },
        {
          "indexed": false,
          "internalType": "string",
          "name": "title",
          "type": "string"
        },
        {
          "indexed": false,
          "internalType": "string",
          "name": "description",
          "type": "string"
        },
        {
          "indexed": false,
          "internalType": "uint256",
          "name": "amountRequested",
          "type": "uint256"
        },
        {
          "indexed": false,
          "internalType": "string",
          "name": "ipfsHash",
          "type": "string"
        }
      ],
      "name": "ProposalCreated",
      "type": "event"
    },
    {
      "anonymous": false,
      "inputs": [
        {
          "indexed": true,
          "internalType": "uint256",
          "name": "proposalId",
          "type": "uint256"
        },
        {
          "indexed": false,
          "internalType": "address",
          "name": "voter",
          "type": "address"
        },
        {
          "indexed": false,
          "internalType": "bool",
          "name": "support",
          "type": "bool"
        }
      ],
      "name": "Voted",
      "type": "event"
    },
    {
      "inputs": [],
      "name": "charityContractAddress",
      "outputs": [
        {
          "internalType": "address",
          "name": "",
          "type": "address"
        }
      ],
      "stateMutability": "view",
      "type": "function"
    },
    {
      "inputs": [
        {
          "internalType": "string",
          "name": "title",
          "type": "string"
        },
        {
          "internalType": "string",
          "name": "description",
          "type": "string"
        },
        {
          "internalType": "uint256",
          "name": "amountRequested",
          "type": "uint256"
        },
        {
          "internalType": "string",
          "name": "ipfsHash",
          "type": "string"
        }
      ],
      "name": "createProposal",
      "outputs": [],
      "stateMutability": "nonpayable",
      "type": "function"
    },
    {
      "inputs": [
        {
          "internalType": "uint256",
          "name": "proposalId",
          "type": "uint256"
        }
      ],
      "name": "distributeFunds",
      "outputs": [],
      "stateMutability": "nonpayable",
      "type": "function"
    },
    {
      "inputs": [],
      "name": "donate",
      "outputs": [],
      "stateMutability": "payable",
      "type": "function"
    },
    {
      "inputs": [],
      "name": "getAllProposals",
      "outputs": [
        {
          "internalType": "string[]",
          "name": "titles",
          "type": "string[]"
        },
        {
          "internalType": "string[]",
          "name": "descriptions",
          "type": "string[]"
        },
        {
          "internalType": "uint256[]",
          "name": "amountsRequested",
          "type": "uint256[]"
        },
        {
          "internalType": "uint256[]",
          "name": "votesFor",
          "type": "uint256[]"
        },
        {
          "internalType": "uint256[]",
          "name": "votesAgainst",
          "type": "uint256[]"
        },
        {
          "internalType": "bool[]",
          "name": "opens",
          "type": "bool[]"
        },
        {
          "internalType": "bool[]",
          "name": "executeds",
          "type": "bool[]"
        },
        {
          "internalType": "string[]",
          "name": "ipfsHashes",
          "type": "string[]"
        }
      ],
      "stateMutability": "view",
      "type": "function"
    },
    {
      "inputs": [
        {
          "internalType": "uint256",
          "name": "proposalId",
          "type": "uint256"
        }
      ],
      "name": "getProposal",
      "outputs": [
        {
          "internalType": "string",
          "name": "title",
          "type": "string"
        },
        {
          "internalType": "string",
          "name": "description",
          "type": "string"
        },
        {
          "internalType": "uint256",
          "name": "amountRequested",
          "type": "uint256"
        },
        {
          "internalType": "uint256",
          "name": "votesFor",
          "type": "uint256"
        },
        {
          "internalType": "uint256",
          "name": "votesAgainst",
          "type": "uint256"
        },
        {
          "internalType": "bool",
          "name": "open",
          "type": "bool"
        },
        {
          "internalType": "bool",
          "name": "executed",
          "type": "bool"
        },
        {
          "internalType": "string",
          "name": "ipfsHash",
          "type": "string"
        }
      ],
      "stateMutability": "view",
      "type": "function"
    },
    {
      "inputs": [],
      "name": "owner",
      "outputs": [
        {
          "internalType": "address",
          "name": "",
          "type": "address"
        }
      ],
      "stateMutability": "view",
      "type": "function"
    },
    {
      "inputs": [
        {
          "internalType": "uint256",
          "name": "",
          "type": "uint256"
        }
      ],
      "name": "proposals",
      "outputs": [
        {
          "internalType": "string",
          "name": "title",
          "type": "string"
        },
        {
          "internalType": "string",
          "name": "description",
          "type": "string"
        },
        {
          "internalType": "uint256",
          "name": "amountRequested",
          "type": "uint256"
        },
        {
          "internalType": "uint256",
          "name": "votesFor",
          "type": "uint256"
        },
        {
          "internalType": "uint256",
          "name": "votesAgainst",
          "type": "uint256"
        },
        {
          "internalType": "bool",
          "name": "open",
          "type": "bool"
        },
        {
          "internalType": "bool",
          "name": "executed",
          "type": "bool"
        },
        {
          "internalType": "string",
          "name": "ipfsHash",
          "type": "string"
        }
      ],
      "stateMutability": "view",
      "type": "function"
    },
    {
      "inputs": [],
      "name": "totalFunds",
      "outputs": [
        {
          "internalType": "uint256",
          "name": "",
          "type": "uint256"
        }
      ],
      "stateMutability": "view",
      "type": "function"
    },
    {
      "inputs": [
        {
          "internalType": "uint256",
          "name": "proposalId",
          "type": "uint256"
        },
        {
          "internalType": "bool",
          "name": "support",
          "type": "bool"
        }
      ],
      "name": "vote",
      "outputs": [],
      "stateMutability": "nonpayable",
      "type": "function"
    },
    {
      "inputs": [
        {
          "internalType": "uint256",
          "name": "",
          "type": "uint256"
        },
        {
          "internalType": "address",
          "name": "",
          "type": "address"
        }
      ],
      "name": "voters",
      "outputs": [
        {
          "internalType": "bool",
          "name": "",
          "type": "bool"
        }
      ],
      "stateMutability": "view",
      "type": "function"
    }
  ],
  "bytecode": "0x6080604052348015600f57600080fd5b50336000806101000a81548173ffffffffffffffffffffffffffffffffffffffff021916908373ffffffffffffffffffffffffffffffffffffffff16021790555061241d8061005f6000396000f3fe60806040526004361061009c5760003560e01c8063c9d27afe11610064578063c9d27afe146101bc578063cceb68f5146101e5578063e1bfbcbb14610217578063ed88c68e14610240578063f1d8eefc1461024a578063f726f715146102755761009c565b8063013cf08b146100a15780638da5cb5b146100e5578063968ed600146101105780639e3190631461013b578063c7f758a814610178575b600080fd5b3480156100ad57600080fd5b506100c860048036038101906100c391906113dd565b61029e565b6040516100dc9897969594939291906114c4565b60405180910390f35b3480156100f157600080fd5b506100fa6104a8565b6040516101079190611598565b60405180910390f35b34801561011c57600080fd5b506101256104cc565b60405161013291906115b3565b60405180910390f35b34801561014757600080fd5b50610162600480360381019061015d91906115fa565b6104d2565b60405161016f919061163a565b60405180910390f35b34801561018457600080fd5b5061019f600480360381019061019a91906113dd565b610501565b6040516101b39897969594939291906114c4565b60405180910390f35b3480156101c857600080fd5b506101e360048036038101906101de9190611681565b61077a565b005b3480156101f157600080fd5b506101fa610977565b60405161020e989796959493929190611949565b60405180910390f35b34801561022357600080fd5b5061023e60048036038101906102399190611b34565b610f1a565b005b610248611035565b005b34801561025657600080fd5b5061025f6110e1565b60405161026c9190611598565b60405180910390f35b34801561028157600080fd5b5061029c600480360381019061029791906113dd565b611107565b005b600281815481106102ae57600080fd5b90600052602060002090600702016000915090508060000180546102d190611c1e565b80601f01602080910402602001604051908101604052809291908181526020018280546102fd90611c1e565b801561034a5780601f1061031f5761010080835404028352916020019161034a565b820191906000526020600020905b81548152906001019060200180831161032d57829003601f168201915b50505050509080600101805461035f90611c1e565b80601f016020809104026020016040519081016040528092919081815260200182805461038b90611c1e565b80156103d85780601f106103ad576101008083540402835291602001916103d8565b820191906000526020600020905b8154815290600101906020018083116103bb57829003601f168201915b5050505050908060020154908060030154908060040154908060050160009054906101000a900460ff16908060050160019054906101000a900460ff169080600601805461042590611c1e565b80601f016020809104026020016040519081016040528092919081815260200182805461045190611c1e565b801561049e5780601f106104735761010080835404028352916020019161049e565b820191906000526020600020905b81548152906001019060200180831161048157829003601f168201915b5050505050905088565b60008054906101000a900473ffffffffffffffffffffffffffffffffffffffff1681565b60015481565b60046020528160005260406000206020528060005260406000206000915091509054906101000a900460ff1681565b606080600080600080600060606002805490508910610555576040517f08c379a000000000000000000000000000000000000000000000000000000000815260040161054c90611c9b565b60405180910390fd5b600060028a8154811061056b5761056a611cbb565b5b9060005260206000209060070201905080600001816001018260020154836003015484600401548560050160009054906101000a900460ff168660050160019054906101000a900460ff16876006018780546105c690611c1e565b80601f01602080910402602001604051908101604052809291908181526020018280546105f290611c1e565b801561063f5780601f106106145761010080835404028352916020019161063f565b820191906000526020600020905b81548152906001019060200180831161062257829003601f168201915b5050505050975086805461065290611c1e565b80601f016020809104026020016040519081016040528092919081815260200182805461067e90611c1e565b80156106cb5780601f106106a0576101008083540402835291602001916106cb565b820191906000526020600020905b8154815290600101906020018083116106ae57829003601f168201915b505050505096508080546106de90611c1e565b80601f016020809104026020016040519081016040528092919081815260200182805461070a90611c1e565b80156107575780601f1061072c57610100808354040283529160200191610757565b820191906000526020600020905b81548152906001019060200180831161073a57829003601f168201915b505050505090509850985098509850985098509850985050919395975091939597565b6000600283815481106107905761078f611cbb565b5b906000526020600020906007020190508060050160009054906101000a900460ff166107f1576040517f08c379a00000000000000000000000000000000000000000000000000000000081526004016107e890611d36565b60405180910390fd5b6004600084815260200190815260200160002060003373ffffffffffffffffffffffffffffffffffffffff1673ffffffffffffffffffffffffffffffffffffffff16815260200190815260200160002060009054906101000a900460ff161561088f576040517f08c379a000000000000000000000000000000000000000000000000000000000815260040161088690611da2565b60405180910390fd5b60016004600085815260200190815260200160002060003373ffffffffffffffffffffffffffffffffffffffff1673ffffffffffffffffffffffffffffffffffffffff16815260200190815260200160002060006101000a81548160ff021916908315150217905550811561091d5780600301600081548092919061091390611df1565b9190505550610938565b80600401600081548092919061093290611df1565b91905055505b827ff2913dbe661ee2acc4a046d8fbcdc792373bda34c41c6086484b5345e5785e5f338460405161096a929190611e39565b60405180910390a2505050565b606080606080606080606080600060028054905090508067ffffffffffffffff8111156109a7576109a6611a09565b5b6040519080825280602002602001820160405280156109da57816020015b60608152602001906001900390816109c55790505b5098508067ffffffffffffffff8111156109f7576109f6611a09565b5b604051908082528060200260200182016040528015610a2a57816020015b6060815260200190600190039081610a155790505b5097508067ffffffffffffffff811115610a4757610a46611a09565b5b604051908082528060200260200182016040528015610a755781602001602082028036833780820191505090505b5096508067ffffffffffffffff811115610a9257610a91611a09565b5b604051908082528060200260200182016040528015610ac05781602001602082028036833780820191505090505b5095508067ffffffffffffffff811115610add57610adc611a09565b5b604051908082528060200260200182016040528015610b0b5781602001602082028036833780820191505090505b5094508067ffffffffffffffff811115610b2857610b27611a09565b5b604051908082528060200260200182016040528015610b565781602001602082028036833780820191505090505b5093508067ffffffffffffffff811115610b7357610b72611a09565b5b604051908082528060200260200182016040528015610ba15781602001602082028036833780820191505090505b5092508067ffffffffffffffff811115610bbe57610bbd611a09565b5b604051908082528060200260200182016040528015610bf157816020015b6060815260200190600190039081610bdc5790505b50915060005b81811015610f0e57600060028281548110610c1557610c14611cbb565b5b90600052602060002090600702019050806000018054610c3490611c1e565b80601f0160208091040260200160405190810160405280929190818152602001828054610c6090611c1e565b8015610cad5780601f10610c8257610100808354040283529160200191610cad565b820191906000526020600020905b815481529060010190602001808311610c9057829003601f168201915b50505050508b8381518110610cc557610cc4611cbb565b5b6020026020010181905250806001018054610cdf90611c1e565b80601f0160208091040260200160405190810160405280929190818152602001828054610d0b90611c1e565b8015610d585780601f10610d2d57610100808354040283529160200191610d58565b820191906000526020600020905b815481529060010190602001808311610d3b57829003601f168201915b50505050508a8381518110610d7057610d6f611cbb565b5b60200260200101819052508060020154898381518110610d9357610d92611cbb565b5b6020026020010181815250508060030154888381518110610db757610db6611cbb565b5b6020026020010181815250508060040154878381518110610ddb57610dda611cbb565b5b6020026020010181815250508060050160009054906101000a900460ff16868381518110610e0c57610e0b611cbb565b5b6020026020010190151590811515815250508060050160019054906101000a900460ff16858381518110610e4357610e42611cbb565b5b602002602001019015159081151581525050806006018054610e6490611c1e565b80601f0160208091040260200160405190810160405280929190818152602001828054610e9090611c1e565b8015610edd5780601f10610eb257610100808354040283529160200191610edd565b820191906000526020600020905b815481529060010190602001808311610ec057829003601f168201915b5050505050848381518110610ef557610ef4611cbb565b5b6020026020010181905250508080600101915050610bf7565b50509091929394959697565b600154821115610f5f576040517f08c379a0000000000000000000000000000000000000000000000000000000008152600401610f5690611eae565b60405180910390fd5b60006002600181600181540180825580915050039060005260206000209060070201905084816000019081610f94919061207a565b5083816001019081610fa6919061207a565b5082816002018190555060018160050160006101000a81548160ff02191690831515021790555081816006019081610fde919061207a565b506001600280549050610ff1919061214c565b7f3dc4f7aeeb6fff4cd85fdf034abceedb0c2975037691998d166324917a663210868686866040516110269493929190612180565b60405180910390a25050505050565b60003411611078576040517f08c379a000000000000000000000000000000000000000000000000000000000815260040161106f90612226565b60405180910390fd5b346001600082825461108a9190612246565b925050819055503373ffffffffffffffffffffffffffffffffffffffff167f264f630d9efa0d07053a31163641d9fcc0adafc9d9e76f1c37c2ce3a558d2c52346040516110d791906115b3565b60405180910390a2565b600360009054906101000a900473ffffffffffffffffffffffffffffffffffffffff1681565b60008054906101000a900473ffffffffffffffffffffffffffffffffffffffff1673ffffffffffffffffffffffffffffffffffffffff163373ffffffffffffffffffffffffffffffffffffffff1614611195576040517f08c379a000000000000000000000000000000000000000000000000000000000815260040161118c906122c6565b60405180910390fd5b6000600282815481106111ab576111aa611cbb565b5b906000526020600020906007020190508060050160009054906101000a900460ff1661120c576040517f08c379a000000000000000000000000000000000000000000000000000000000815260040161120390612332565b60405180910390fd5b8060050160019054906101000a900460ff161561125e576040517f08c379a00000000000000000000000000000000000000000000000000000000081526004016112559061239e565b60405180910390fd5b8060040154816003015411156113725760008054906101000a900473ffffffffffffffffffffffffffffffffffffffff1673ffffffffffffffffffffffffffffffffffffffff166108fc82600201549081150290604051600060405180830381858888f193505050501580156112d8573d6000803e3d6000fd5b5060018160050160016101000a81548160ff02191690831515021790555080600201546001600082825461130c919061214c565b92505081905550817f9f5926601e7fc353505f05fae61282ae5d67b716f95656849456e6aa7bbbbb5f60008054906101000a900473ffffffffffffffffffffffffffffffffffffffff1683600201546040516113699291906123be565b60405180910390a25b60008160050160006101000a81548160ff0219169083151502179055505050565b6000604051905090565b600080fd5b600080fd5b6000819050919050565b6113ba816113a7565b81146113c557600080fd5b50565b6000813590506113d7816113b1565b92915050565b6000602082840312156113f3576113f261139d565b5b6000611401848285016113c8565b91505092915050565b600081519050919050565b600082825260208201905092915050565b60005b83811015611444578082015181840152602081019050611429565b60008484015250505050565b6000601f19601f8301169050919050565b600061146c8261140a565b6114768185611415565b9350611486818560208601611426565b61148f81611450565b840191505092915050565b6114a3816113a7565b82525050565b60008115159050919050565b6114be816114a9565b82525050565b60006101008201905081810360008301526114df818b611461565b905081810360208301526114f3818a611461565b9050611502604083018961149a565b61150f606083018861149a565b61151c608083018761149a565b61152960a08301866114b5565b61153660c08301856114b5565b81810360e08301526115488184611461565b90509998505050505050505050565b600073ffffffffffffffffffffffffffffffffffffffff82169050919050565b600061158282611557565b9050919050565b61159281611577565b82525050565b60006020820190506115ad6000830184611589565b92915050565b60006020820190506115c8600083018461149a565b92915050565b6115d781611577565b81146115e257600080fd5b50565b6000813590506115f4816115ce565b92915050565b600080604083850312156116115761161061139d565b5b600061161f858286016113c8565b9250506020611630858286016115e5565b9150509250929050565b600060208201905061164f60008301846114b5565b92915050565b61165e816114a9565b811461166957600080fd5b50565b60008135905061167b81611655565b92915050565b600080604083850312156116985761169761139d565b5b60006116a6858286016113c8565b92505060206116b78582860161166c565b9150509250929050565b600081519050919050565b600082825260208201905092915050565b6000819050602082019050919050565b600082825260208201905092915050565b60006117098261140a565b61171381856116ed565b9350611723818560208601611426565b61172c81611450565b840191505092915050565b600061174383836116fe565b905092915050565b6000602082019050919050565b6000611763826116c1565b61176d81856116cc565b93508360208202850161177f856116dd565b8060005b858110156117bb578484038952815161179c8582611737565b94506117a78361174b565b925060208a01995050600181019050611783565b50829750879550505050505092915050565b600081519050919050565b600082825260208201905092915050565b6000819050602082019050919050565b611802816113a7565b82525050565b600061181483836117f9565b60208301905092915050565b6000602082019050919050565b6000611838826117cd565b61184281856117d8565b935061184d836117e9565b8060005b8381101561187e5781516118658882611808565b975061187083611820565b925050600181019050611851565b5085935050505092915050565b600081519050919050565b600082825260208201905092915050565b6000819050602082019050919050565b6118c0816114a9565b82525050565b60006118d283836118b7565b60208301905092915050565b6000602082019050919050565b60006118f68261188b565b6119008185611896565b935061190b836118a7565b8060005b8381101561193c57815161192388826118c6565b975061192e836118de565b92505060018101905061190f565b5085935050505092915050565b6000610100820190508181036000830152611964818b611758565b90508181036020830152611978818a611758565b9050818103604083015261198c818961182d565b905081810360608301526119a0818861182d565b905081810360808301526119b4818761182d565b905081810360a08301526119c881866118eb565b905081810360c08301526119dc81856118eb565b905081810360e08301526119f08184611758565b90509998505050505050505050565b600080fd5b600080fd5b7f4e487b7100000000000000000000000000000000000000000000000000000000600052604160045260246000fd5b611a4182611450565b810181811067ffffffffffffffff82111715611a6057611a5f611a09565b5b80604052505050565b6000611a73611393565b9050611a7f8282611a38565b919050565b600067ffffffffffffffff821115611a9f57611a9e611a09565b5b611aa882611450565b9050602081019050919050565b82818337600083830152505050565b6000611ad7611ad284611a84565b611a69565b905082815260208101848484011115611af357611af2611a04565b5b611afe848285611ab5565b509392505050565b600082601f830112611b1b57611b1a6119ff565b5b8135611b2b848260208601611ac4565b91505092915050565b60008060008060808587031215611b4e57611b4d61139d565b5b600085013567ffffffffffffffff811115611b6c57611b6b6113a2565b5b611b7887828801611b06565b945050602085013567ffffffffffffffff811115611b9957611b986113a2565b5b611ba587828801611b06565b9350506040611bb6878288016113c8565b925050606085013567ffffffffffffffff811115611bd757611bd66113a2565b5b611be387828801611b06565b91505092959194509250565b7f4e487b7100000000000000000000000000000000000000000000000000000000600052602260045260246000fd5b60006002820490506001821680611c3657607f821691505b602082108103611c4957611c48611bef565b5b50919050565b7f496e76616c69642070726f706f73616c20494400000000000000000000000000600082015250565b6000611c85601383611415565b9150611c9082611c4f565b602082019050919050565b60006020820190508181036000830152611cb481611c78565b9050919050565b7f4e487b7100000000000000000000000000000000000000000000000000000000600052603260045260246000fd5b7f566f74696e6720636c6f73656400000000000000000000000000000000000000600082015250565b6000611d20600d83611415565b9150611d2b82611cea565b602082019050919050565b60006020820190508181036000830152611d4f81611d13565b9050919050565b7f416c726561647920766f74656400000000000000000000000000000000000000600082015250565b6000611d8c600d83611415565b9150611d9782611d56565b602082019050919050565b60006020820190508181036000830152611dbb81611d7f565b9050919050565b7f4e487b7100000000000000000000000000000000000000000000000000000000600052601160045260246000fd5b6000611dfc826113a7565b91507fffffffffffffffffffffffffffffffffffffffffffffffffffffffffffffffff8203611e2e57611e2d611dc2565b5b600182019050919050565b6000604082019050611e4e6000830185611589565b611e5b60208301846114b5565b9392505050565b7f4e6f7420656e6f7567682066756e647300000000000000000000000000000000600082015250565b6000611e98601083611415565b9150611ea382611e62565b602082019050919050565b60006020820190508181036000830152611ec781611e8b565b9050919050565b60008190508160005260206000209050919050565b60006020601f8301049050919050565b600082821b905092915050565b600060088302611f307fffffffffffffffffffffffffffffffffffffffffffffffffffffffffffffffff82611ef3565b611f3a8683611ef3565b95508019841693508086168417925050509392505050565b6000819050919050565b6000611f77611f72611f6d846113a7565b611f52565b6113a7565b9050919050565b6000819050919050565b611f9183611f5c565b611fa5611f9d82611f7e565b848454611f00565b825550505050565b600090565b611fba611fad565b611fc5818484611f88565b505050565b5b81811015611fe957611fde600082611fb2565b600181019050611fcb565b5050565b601f82111561202e57611fff81611ece565b61200884611ee3565b81016020851015612017578190505b61202b61202385611ee3565b830182611fca565b50505b505050565b600082821c905092915050565b600061205160001984600802612033565b1980831691505092915050565b600061206a8383612040565b9150826002028217905092915050565b6120838261140a565b67ffffffffffffffff81111561209c5761209b611a09565b5b6120a68254611c1e565b6120b1828285611fed565b600060209050601f8311600181146120e457600084156120d2578287015190505b6120dc858261205e565b865550612144565b601f1984166120f286611ece565b60005b8281101561211a578489015182556001820191506020850194506020810190506120f5565b868310156121375784890151612133601f891682612040565b8355505b6001600288020188555050505b505050505050565b6000612157826113a7565b9150612162836113a7565b925082820390508181111561217a57612179611dc2565b5b92915050565b6000608082019050818103600083015261219a8187611461565b905081810360208301526121ae8186611461565b90506121bd604083018561149a565b81810360608301526121cf8184611461565b905095945050505050565b7f4d7573742073656e642045544800000000000000000000000000000000000000600082015250565b6000612210600d83611415565b915061221b826121da565b602082019050919050565b6000602082019050818103600083015261223f81612203565b9050919050565b6000612251826113a7565b915061225c836113a7565b925082820190508082111561227457612273611dc2565b5b92915050565b7f4e6f7420617574686f72697a6564000000000000000000000000000000000000600082015250565b60006122b0600e83611415565b91506122bb8261227a565b602082019050919050565b600060208201905081810360008301526122df816122a3565b9050919050565b7f50726f706f73616c20636c6f7365640000000000000000000000000000000000600082015250565b600061231c600f83611415565b9150612327826122e6565b602082019050919050565b6000602082019050818103600083015261234b8161230f565b9050919050565b7f416c726561647920657865637574656400000000000000000000000000000000600082015250565b6000612388601083611415565b915061239382612352565b602082019050919050565b600060208201905081810360008301526123b78161237b565b9050919050565b60006040820190506123d36000830185611589565b6123e0602083018461149a565b939250505056fea2646970667358221220d304a04fc15ee483b87e3d0bdbf53cf9b3dc8456143b496690d7a9f8fa1f9d1d64736f6c634300081c0033",
  "linkReferences": {},
  "deployedLinkReferences": {}
}