{
  "_format": "hh-sol-artifact-1",
  "contractName": "Funds",
  "sourceName": "contracts/fonduri.sol",
  "abi": [
    {
      "inputs": [],
      "stateMutability": "nonpayable",
      "type": "constructor"
    },
    {
      "anonymous": false,
      "inputs": [
        {
          "indexed": true,
          "internalType": "address",
          "name": "donor",
          "type": "address"
        },
        {
          "indexed": false,
          "internalType": "uint256",
          "name": "amount",
          "type": "uint256"
        }
      ],
      "name": "DonationReceived",
      "type": "event"
    },
    {
      "anonymous": false,
      "inputs": [
        {
          "indexed": true,
          "internalType": "uint256",
          "name": "proposalId",
          "type": "uint256"
        },
        {
          "indexed": false,
          "internalType": "address",
          "name": "recipient",
          "type": "address"
        },
        {
          "indexed": false,
          "internalType": "uint256",
          "name": "amount",
          "type": "uint256"
        }
      ],
      "name": "FundsDistributed",
      "type": "event"
    },
    {
      "anonymous": false,
      "inputs": [
        {
          "indexed": true,
          "internalType": "address",
          "name": "account",
          "type": "address"
        },
        {
          "indexed": false,
          "internalType": "uint256",
          "name": "amount",
          "type": "uint256"
        }
      ],
      "name": "FundsWithdrawn",
      "type": "event"
    },
    {
      "anonymous": false,
      "inputs": [
        {
          "indexed": true,
          "internalType": "uint256",
          "name": "proposalId",
          "type": "uint256"
        },
        {
          "indexed": false,
          "internalType": "string",
          "name": "description",
          "type": "string"
        },
        {
          "indexed": false,
          "internalType": "uint256",
          "name": "amountRequested",
          "type": "uint256"
        },
        {
          "indexed": false,
          "internalType": "string",
          "name": "ipfsHash",
          "type": "string"
        }
      ],
      "name": "ProposalCreated",
      "type": "event"
    },
    {
      "anonymous": false,
      "inputs": [
        {
          "indexed": true,
          "internalType": "uint256",
          "name": "proposalId",
          "type": "uint256"
        },
        {
          "indexed": false,
          "internalType": "address",
          "name": "voter",
          "type": "address"
        },
        {
          "indexed": false,
          "internalType": "bool",
          "name": "support",
          "type": "bool"
        }
      ],
      "name": "Voted",
      "type": "event"
    },
    {
      "inputs": [
        {
          "internalType": "uint256",
          "name": "total",
          "type": "uint256"
        },
        {
          "internalType": "uint256",
          "name": "percentage",
          "type": "uint256"
        }
      ],
      "name": "calculatePercentage",
      "outputs": [
        {
          "internalType": "uint256",
          "name": "",
          "type": "uint256"
        }
      ],
      "stateMutability": "pure",
      "type": "function"
    },
    {
      "inputs": [],
      "name": "charityContractAddress",
      "outputs": [
        {
          "internalType": "address",
          "name": "",
          "type": "address"
        }
      ],
      "stateMutability": "view",
      "type": "function"
    },
    {
      "inputs": [
        {
          "internalType": "string",
          "name": "description",
          "type": "string"
        },
        {
          "internalType": "uint256",
          "name": "amountRequested",
          "type": "uint256"
        },
        {
          "internalType": "string",
          "name": "ipfsHash",
          "type": "string"
        }
      ],
      "name": "createProposal",
      "outputs": [],
      "stateMutability": "nonpayable",
      "type": "function"
    },
    {
      "inputs": [
        {
          "internalType": "uint256",
          "name": "proposalId",
          "type": "uint256"
        }
      ],
      "name": "distributeFunds",
      "outputs": [],
      "stateMutability": "nonpayable",
      "type": "function"
    },
    {
      "inputs": [],
      "name": "donate",
      "outputs": [],
      "stateMutability": "payable",
      "type": "function"
    },
    {
      "inputs": [
        {
          "internalType": "uint256",
          "name": "amount",
          "type": "uint256"
        }
      ],
      "name": "donateToCharity",
      "outputs": [],
      "stateMutability": "nonpayable",
      "type": "function"
    },
    {
      "inputs": [],
      "name": "getAllProposals",
      "outputs": [
        {
          "internalType": "string[]",
          "name": "descriptions",
          "type": "string[]"
        },
        {
          "internalType": "uint256[]",
          "name": "amountsRequested",
          "type": "uint256[]"
        },
        {
          "internalType": "uint256[]",
          "name": "votesFor",
          "type": "uint256[]"
        },
        {
          "internalType": "uint256[]",
          "name": "votesAgainst",
          "type": "uint256[]"
        },
        {
          "internalType": "bool[]",
          "name": "opens",
          "type": "bool[]"
        },
        {
          "internalType": "bool[]",
          "name": "executeds",
          "type": "bool[]"
        },
        {
          "internalType": "string[]",
          "name": "ipfsHashes",
          "type": "string[]"
        }
      ],
      "stateMutability": "view",
      "type": "function"
    },
    {
      "inputs": [
        {
          "internalType": "uint256",
          "name": "proposalId",
          "type": "uint256"
        }
      ],
      "name": "getProposal",
      "outputs": [
        {
          "internalType": "string",
          "name": "description",
          "type": "string"
        },
        {
          "internalType": "uint256",
          "name": "amountRequested",
          "type": "uint256"
        },
        {
          "internalType": "uint256",
          "name": "votesFor",
          "type": "uint256"
        },
        {
          "internalType": "uint256",
          "name": "votesAgainst",
          "type": "uint256"
        },
        {
          "internalType": "bool",
          "name": "open",
          "type": "bool"
        },
        {
          "internalType": "bool",
          "name": "executed",
          "type": "bool"
        },
        {
          "internalType": "string",
          "name": "ipfsHash",
          "type": "string"
        }
      ],
      "stateMutability": "view",
      "type": "function"
    },
    {
      "inputs": [],
      "name": "owner",
      "outputs": [
        {
          "internalType": "address",
          "name": "",
          "type": "address"
        }
      ],
      "stateMutability": "view",
      "type": "function"
    },
    {
      "inputs": [],
      "name": "proposalCount",
      "outputs": [
        {
          "internalType": "uint256",
          "name": "",
          "type": "uint256"
        }
      ],
      "stateMutability": "view",
      "type": "function"
    },
    {
      "inputs": [
        {
          "internalType": "uint256",
          "name": "",
          "type": "uint256"
        }
      ],
      "name": "proposals",
      "outputs": [
        {
          "internalType": "string",
          "name": "description",
          "type": "string"
        },
        {
          "internalType": "uint256",
          "name": "amountRequested",
          "type": "uint256"
        },
        {
          "internalType": "uint256",
          "name": "votesFor",
          "type": "uint256"
        },
        {
          "internalType": "uint256",
          "name": "votesAgainst",
          "type": "uint256"
        },
        {
          "internalType": "bool",
          "name": "open",
          "type": "bool"
        },
        {
          "internalType": "bool",
          "name": "executed",
          "type": "bool"
        },
        {
          "internalType": "string",
          "name": "ipfsHash",
          "type": "string"
        }
      ],
      "stateMutability": "view",
      "type": "function"
    },
    {
      "inputs": [
        {
          "internalType": "address",
          "name": "_charityContract",
          "type": "address"
        }
      ],
      "name": "setCharityContract",
      "outputs": [],
      "stateMutability": "nonpayable",
      "type": "function"
    },
    {
      "inputs": [],
      "name": "totalFunds",
      "outputs": [
        {
          "internalType": "uint256",
          "name": "",
          "type": "uint256"
        }
      ],
      "stateMutability": "view",
      "type": "function"
    },
    {
      "inputs": [
        {
          "internalType": "uint256",
          "name": "proposalId",
          "type": "uint256"
        },
        {
          "internalType": "bool",
          "name": "support",
          "type": "bool"
        }
      ],
      "name": "vote",
      "outputs": [],
      "stateMutability": "nonpayable",
      "type": "function"
    },
    {
      "inputs": [
        {
          "internalType": "uint256",
          "name": "",
          "type": "uint256"
        },
        {
          "internalType": "address",
          "name": "",
          "type": "address"
        }
      ],
      "name": "voters",
      "outputs": [
        {
          "internalType": "bool",
          "name": "",
          "type": "bool"
        }
      ],
      "stateMutability": "view",
      "type": "function"
    },
    {
      "inputs": [
        {
          "internalType": "uint256",
          "name": "amount",
          "type": "uint256"
        }
      ],
      "name": "withdraw",
      "outputs": [],
      "stateMutability": "nonpayable",
      "type": "function"
    }
  ],
  "bytecode": "0x6080604052348015600f57600080fd5b50336000806101000a81548173ffffffffffffffffffffffffffffffffffffffff021916908373ffffffffffffffffffffffffffffffffffffffff1602179055506126398061005f6000396000f3fe6080604052600436106100f35760003560e01c8063beeaee911161008a578063da35c66411610059578063da35c6641461034c578063ed88c68e14610377578063f1d8eefc14610381578063f726f715146103ac576100f3565b8063beeaee9114610286578063c7f758a8146102af578063c9d27afe146102f2578063cceb68f51461031b576100f3565b80638da5cb5b116100c65780638da5cb5b146101ca578063968ed600146101f55780639e31906314610220578063bcb82dbc1461025d576100f3565b8063013cf08b146100f85780632133e3b91461013b5780632e1a7d4d1461017857806356d9ef34146101a1575b600080fd5b34801561010457600080fd5b5061011f600480360381019061011a91906114ef565b6103d5565b60405161013297969594939291906115d6565b60405180910390f35b34801561014757600080fd5b50610162600480360381019061015d9190611653565b610551565b60405161016f9190611693565b60405180910390f35b34801561018457600080fd5b5061019f600480360381019061019a91906114ef565b610573565b005b3480156101ad57600080fd5b506101c860048036038101906101c391906117e3565b61064e565b005b3480156101d657600080fd5b506101df610754565b6040516101ec91906118af565b60405180910390f35b34801561020157600080fd5b5061020a610778565b6040516102179190611693565b60405180910390f35b34801561022c57600080fd5b50610247600480360381019061024291906118f6565b61077e565b6040516102549190611936565b60405180910390f35b34801561026957600080fd5b50610284600480360381019061027f9190611951565b6107ad565b005b34801561029257600080fd5b506102ad60048036038101906102a891906114ef565b61087f565b005b3480156102bb57600080fd5b506102d660048036038101906102d191906114ef565b610a0a565b6040516102e997969594939291906115d6565b60405180910390f35b3480156102fe57600080fd5b50610319600480360381019061031491906119aa565b610bf0565b005b34801561032757600080fd5b50610330610ded565b6040516103439796959493929190611c72565b60405180910390f35b34801561035857600080fd5b50610361611141565b60405161036e9190611693565b60405180910390f35b61037f611147565b005b34801561038d57600080fd5b506103966111f3565b6040516103a391906118af565b60405180910390f35b3480156103b857600080fd5b506103d360048036038101906103ce91906114ef565b611219565b005b600281815481106103e557600080fd5b906000526020600020906006020160009150905080600001805461040890611d41565b80601f016020809104026020016040519081016040528092919081815260200182805461043490611d41565b80156104815780601f1061045657610100808354040283529160200191610481565b820191906000526020600020905b81548152906001019060200180831161046457829003601f168201915b5050505050908060010154908060020154908060030154908060040160009054906101000a900460ff16908060040160019054906101000a900460ff16908060050180546104ce90611d41565b80601f01602080910402602001604051908101604052809291908181526020018280546104fa90611d41565b80156105475780601f1061051c57610100808354040283529160200191610547565b820191906000526020600020905b81548152906001019060200180831161052a57829003601f168201915b5050505050905087565b6000606482846105619190611da1565b61056b9190611e12565b905092915050565b478111156105b6576040517f08c379a00000000000000000000000000000000000000000000000000000000081526004016105ad90611e8f565b60405180910390fd5b3373ffffffffffffffffffffffffffffffffffffffff166108fc829081150290604051600060405180830381858888f193505050501580156105fc573d6000803e3d6000fd5b503373ffffffffffffffffffffffffffffffffffffffff167feaff4b37086828766ad3268786972c0cd24259d4c87a80f9d3963a3c3d999b0d826040516106439190611693565b60405180910390a250565b600154821115610693576040517f08c379a000000000000000000000000000000000000000000000000000000000815260040161068a90611e8f565b60405180910390fd5b600060026001816001815401808255809150500390600052602060002090600602019050838160000190816106c8919061205b565b5082816001018190555060018160040160006101000a81548160ff02191690831515021790555081816005019081610700919061205b565b506001600280549050610713919061212d565b7f18ed699f869a4ee351b5a3f3fc22ed99a22644d8e4b199afb1d226a02167c66d85858560405161074693929190612161565b60405180910390a250505050565b60008054906101000a900473ffffffffffffffffffffffffffffffffffffffff1681565b60015481565b60056020528160005260406000206020528060005260406000206000915091509054906101000a900460ff1681565b60008054906101000a900473ffffffffffffffffffffffffffffffffffffffff1673ffffffffffffffffffffffffffffffffffffffff163373ffffffffffffffffffffffffffffffffffffffff161461083b576040517f08c379a0000000000000000000000000000000000000000000000000000000008152600401610832906121f2565b60405180910390fd5b80600460006101000a81548173ffffffffffffffffffffffffffffffffffffffff021916908373ffffffffffffffffffffffffffffffffffffffff16021790555050565b60008054906101000a900473ffffffffffffffffffffffffffffffffffffffff1673ffffffffffffffffffffffffffffffffffffffff163373ffffffffffffffffffffffffffffffffffffffff161461090d576040517f08c379a0000000000000000000000000000000000000000000000000000000008152600401610904906121f2565b60405180910390fd5b600073ffffffffffffffffffffffffffffffffffffffff16600460009054906101000a900473ffffffffffffffffffffffffffffffffffffffff1673ffffffffffffffffffffffffffffffffffffffff160361099e576040517f08c379a00000000000000000000000000000000000000000000000000000000081526004016109959061225e565b60405180910390fd5b600460009054906101000a900473ffffffffffffffffffffffffffffffffffffffff1673ffffffffffffffffffffffffffffffffffffffff166108fc829081150290604051600060405180830381858888f19350505050158015610a06573d6000803e3d6000fd5b5050565b6060600080600080600060606002805490508810610a5d576040517f08c379a0000000000000000000000000000000000000000000000000000000008152600401610a54906122ca565b60405180910390fd5b600060028981548110610a7357610a726122ea565b5b90600052602060002090600602019050806000018160010154826002015483600301548460040160009054906101000a900460ff168560040160019054906101000a900460ff1686600501868054610aca90611d41565b80601f0160208091040260200160405190810160405280929190818152602001828054610af690611d41565b8015610b435780601f10610b1857610100808354040283529160200191610b43565b820191906000526020600020905b815481529060010190602001808311610b2657829003601f168201915b50505050509650808054610b5690611d41565b80601f0160208091040260200160405190810160405280929190818152602001828054610b8290611d41565b8015610bcf5780601f10610ba457610100808354040283529160200191610bcf565b820191906000526020600020905b815481529060010190602001808311610bb257829003601f168201915b50505050509050975097509750975097509750975050919395979092949650565b600060028381548110610c0657610c056122ea565b5b906000526020600020906006020190508060040160009054906101000a900460ff16610c67576040517f08c379a0000000000000000000000000000000000000000000000000000000008152600401610c5e90612365565b60405180910390fd5b6005600084815260200190815260200160002060003373ffffffffffffffffffffffffffffffffffffffff1673ffffffffffffffffffffffffffffffffffffffff16815260200190815260200160002060009054906101000a900460ff1615610d05576040517f08c379a0000000000000000000000000000000000000000000000000000000008152600401610cfc906123d1565b60405180910390fd5b60016005600085815260200190815260200160002060003373ffffffffffffffffffffffffffffffffffffffff1673ffffffffffffffffffffffffffffffffffffffff16815260200190815260200160002060006101000a81548160ff0219169083151502179055508115610d9357806002016000815480929190610d89906123f1565b9190505550610dae565b806003016000815480929190610da8906123f1565b91905055505b827ff2913dbe661ee2acc4a046d8fbcdc792373bda34c41c6086484b5345e5785e5f3384604051610de0929190612439565b60405180910390a2505050565b606080606080606080606060028054905067ffffffffffffffff811115610e1757610e166116b8565b5b604051908082528060200260200182016040528015610e4a57816020015b6060815260200190600190039081610e355790505b50965060028054905067ffffffffffffffff811115610e6c57610e6b6116b8565b5b604051908082528060200260200182016040528015610e9a5781602001602082028036833780820191505090505b50955060028054905067ffffffffffffffff811115610ebc57610ebb6116b8565b5b604051908082528060200260200182016040528015610eea5781602001602082028036833780820191505090505b50945060028054905067ffffffffffffffff811115610f0c57610f0b6116b8565b5b604051908082528060200260200182016040528015610f3a5781602001602082028036833780820191505090505b50935060028054905067ffffffffffffffff811115610f5c57610f5b6116b8565b5b604051908082528060200260200182016040528015610f8a5781602001602082028036833780820191505090505b50925060028054905067ffffffffffffffff811115610fac57610fab6116b8565b5b604051908082528060200260200182016040528015610fda5781602001602082028036833780820191505090505b50915060028054905067ffffffffffffffff811115610ffc57610ffb6116b8565b5b60405190808252806020026020018201604052801561102f57816020015b606081526020019060019003908161101a5790505b50905060005b6002805490508110156111375761104b81610a0a565b8e888151811061105e5761105d6122ea565b5b602002602001018e8981518110611078576110776122ea565b5b602002602001018e8a81518110611092576110916122ea565b5b602002602001018e8b815181106110ac576110ab6122ea565b5b602002602001018e8c815181106110c6576110c56122ea565b5b602002602001018e8d815181106110e0576110df6122ea565b5b602002602001018e8e815181106110fa576110f96122ea565b5b6020026020010187905287151515158152508715151515815250878152508781525087815250879052505050505050508080600101915050611035565b5090919293949596565b60035481565b6000341161118a576040517f08c379a0000000000000000000000000000000000000000000000000000000008152600401611181906124ae565b60405180910390fd5b346001600082825461119c91906124ce565b925050819055503373ffffffffffffffffffffffffffffffffffffffff167f264f630d9efa0d07053a31163641d9fcc0adafc9d9e76f1c37c2ce3a558d2c52346040516111e99190611693565b60405180910390a2565b600460009054906101000a900473ffffffffffffffffffffffffffffffffffffffff1681565b60008054906101000a900473ffffffffffffffffffffffffffffffffffffffff1673ffffffffffffffffffffffffffffffffffffffff163373ffffffffffffffffffffffffffffffffffffffff16146112a7576040517f08c379a000000000000000000000000000000000000000000000000000000000815260040161129e906121f2565b60405180910390fd5b6000600282815481106112bd576112bc6122ea565b5b906000526020600020906006020190508060040160009054906101000a900460ff1661131e576040517f08c379a00000000000000000000000000000000000000000000000000000000081526004016113159061254e565b60405180910390fd5b8060040160019054906101000a900460ff1615611370576040517f08c379a0000000000000000000000000000000000000000000000000000000008152600401611367906125ba565b60405180910390fd5b8060030154816002015411156114845760008054906101000a900473ffffffffffffffffffffffffffffffffffffffff1673ffffffffffffffffffffffffffffffffffffffff166108fc82600101549081150290604051600060405180830381858888f193505050501580156113ea573d6000803e3d6000fd5b5060018160040160016101000a81548160ff02191690831515021790555080600101546001600082825461141e919061212d565b92505081905550817f9f5926601e7fc353505f05fae61282ae5d67b716f95656849456e6aa7bbbbb5f60008054906101000a900473ffffffffffffffffffffffffffffffffffffffff16836001015460405161147b9291906125da565b60405180910390a25b60008160040160006101000a81548160ff0219169083151502179055505050565b6000604051905090565b600080fd5b600080fd5b6000819050919050565b6114cc816114b9565b81146114d757600080fd5b50565b6000813590506114e9816114c3565b92915050565b600060208284031215611505576115046114af565b5b6000611513848285016114da565b91505092915050565b600081519050919050565b600082825260208201905092915050565b60005b8381101561155657808201518184015260208101905061153b565b60008484015250505050565b6000601f19601f8301169050919050565b600061157e8261151c565b6115888185611527565b9350611598818560208601611538565b6115a181611562565b840191505092915050565b6115b5816114b9565b82525050565b60008115159050919050565b6115d0816115bb565b82525050565b600060e08201905081810360008301526115f0818a611573565b90506115ff60208301896115ac565b61160c60408301886115ac565b61161960608301876115ac565b61162660808301866115c7565b61163360a08301856115c7565b81810360c08301526116458184611573565b905098975050505050505050565b6000806040838503121561166a576116696114af565b5b6000611678858286016114da565b9250506020611689858286016114da565b9150509250929050565b60006020820190506116a860008301846115ac565b92915050565b600080fd5b600080fd5b7f4e487b7100000000000000000000000000000000000000000000000000000000600052604160045260246000fd5b6116f082611562565b810181811067ffffffffffffffff8211171561170f5761170e6116b8565b5b80604052505050565b60006117226114a5565b905061172e82826116e7565b919050565b600067ffffffffffffffff82111561174e5761174d6116b8565b5b61175782611562565b9050602081019050919050565b82818337600083830152505050565b600061178661178184611733565b611718565b9050828152602081018484840111156117a2576117a16116b3565b5b6117ad848285611764565b509392505050565b600082601f8301126117ca576117c96116ae565b5b81356117da848260208601611773565b91505092915050565b6000806000606084860312156117fc576117fb6114af565b5b600084013567ffffffffffffffff81111561181a576118196114b4565b5b611826868287016117b5565b9350506020611837868287016114da565b925050604084013567ffffffffffffffff811115611858576118576114b4565b5b611864868287016117b5565b9150509250925092565b600073ffffffffffffffffffffffffffffffffffffffff82169050919050565b60006118998261186e565b9050919050565b6118a98161188e565b82525050565b60006020820190506118c460008301846118a0565b92915050565b6118d38161188e565b81146118de57600080fd5b50565b6000813590506118f0816118ca565b92915050565b6000806040838503121561190d5761190c6114af565b5b600061191b858286016114da565b925050602061192c858286016118e1565b9150509250929050565b600060208201905061194b60008301846115c7565b92915050565b600060208284031215611967576119666114af565b5b6000611975848285016118e1565b91505092915050565b611987816115bb565b811461199257600080fd5b50565b6000813590506119a48161197e565b92915050565b600080604083850312156119c1576119c06114af565b5b60006119cf858286016114da565b92505060206119e085828601611995565b9150509250929050565b600081519050919050565b600082825260208201905092915050565b6000819050602082019050919050565b600082825260208201905092915050565b6000611a328261151c565b611a3c8185611a16565b9350611a4c818560208601611538565b611a5581611562565b840191505092915050565b6000611a6c8383611a27565b905092915050565b6000602082019050919050565b6000611a8c826119ea565b611a9681856119f5565b935083602082028501611aa885611a06565b8060005b85811015611ae45784840389528151611ac58582611a60565b9450611ad083611a74565b925060208a01995050600181019050611aac565b50829750879550505050505092915050565b600081519050919050565b600082825260208201905092915050565b6000819050602082019050919050565b611b2b816114b9565b82525050565b6000611b3d8383611b22565b60208301905092915050565b6000602082019050919050565b6000611b6182611af6565b611b6b8185611b01565b9350611b7683611b12565b8060005b83811015611ba7578151611b8e8882611b31565b9750611b9983611b49565b925050600181019050611b7a565b5085935050505092915050565b600081519050919050565b600082825260208201905092915050565b6000819050602082019050919050565b611be9816115bb565b82525050565b6000611bfb8383611be0565b60208301905092915050565b6000602082019050919050565b6000611c1f82611bb4565b611c298185611bbf565b9350611c3483611bd0565b8060005b83811015611c65578151611c4c8882611bef565b9750611c5783611c07565b925050600181019050611c38565b5085935050505092915050565b600060e0820190508181036000830152611c8c818a611a81565b90508181036020830152611ca08189611b56565b90508181036040830152611cb48188611b56565b90508181036060830152611cc88187611b56565b90508181036080830152611cdc8186611c14565b905081810360a0830152611cf08185611c14565b905081810360c0830152611d048184611a81565b905098975050505050505050565b7f4e487b7100000000000000000000000000000000000000000000000000000000600052602260045260246000fd5b60006002820490506001821680611d5957607f821691505b602082108103611d6c57611d6b611d12565b5b50919050565b7f4e487b7100000000000000000000000000000000000000000000000000000000600052601160045260246000fd5b6000611dac826114b9565b9150611db7836114b9565b9250828202611dc5816114b9565b91508282048414831517611ddc57611ddb611d72565b5b5092915050565b7f4e487b7100000000000000000000000000000000000000000000000000000000600052601260045260246000fd5b6000611e1d826114b9565b9150611e28836114b9565b925082611e3857611e37611de3565b5b828204905092915050565b7f4e6f7420656e6f7567682066756e647300000000000000000000000000000000600082015250565b6000611e79601083611527565b9150611e8482611e43565b602082019050919050565b60006020820190508181036000830152611ea881611e6c565b9050919050565b60008190508160005260206000209050919050565b60006020601f8301049050919050565b600082821b905092915050565b600060088302611f117fffffffffffffffffffffffffffffffffffffffffffffffffffffffffffffffff82611ed4565b611f1b8683611ed4565b95508019841693508086168417925050509392505050565b6000819050919050565b6000611f58611f53611f4e846114b9565b611f33565b6114b9565b9050919050565b6000819050919050565b611f7283611f3d565b611f86611f7e82611f5f565b848454611ee1565b825550505050565b600090565b611f9b611f8e565b611fa6818484611f69565b505050565b5b81811015611fca57611fbf600082611f93565b600181019050611fac565b5050565b601f82111561200f57611fe081611eaf565b611fe984611ec4565b81016020851015611ff8578190505b61200c61200485611ec4565b830182611fab565b50505b505050565b600082821c905092915050565b600061203260001984600802612014565b1980831691505092915050565b600061204b8383612021565b9150826002028217905092915050565b6120648261151c565b67ffffffffffffffff81111561207d5761207c6116b8565b5b6120878254611d41565b612092828285611fce565b600060209050601f8311600181146120c557600084156120b3578287015190505b6120bd858261203f565b865550612125565b601f1984166120d386611eaf565b60005b828110156120fb578489015182556001820191506020850194506020810190506120d6565b868310156121185784890151612114601f891682612021565b8355505b6001600288020188555050505b505050505050565b6000612138826114b9565b9150612143836114b9565b925082820390508181111561215b5761215a611d72565b5b92915050565b6000606082019050818103600083015261217b8186611573565b905061218a60208301856115ac565b818103604083015261219c8184611573565b9050949350505050565b7f4e6f7420617574686f72697a6564000000000000000000000000000000000000600082015250565b60006121dc600e83611527565b91506121e7826121a6565b602082019050919050565b6000602082019050818103600083015261220b816121cf565b9050919050565b7f4368617269747920636f6e7472616374206e6f74207365740000000000000000600082015250565b6000612248601883611527565b915061225382612212565b602082019050919050565b600060208201905081810360008301526122778161223b565b9050919050565b7f496e76616c69642070726f706f73616c20494400000000000000000000000000600082015250565b60006122b4601383611527565b91506122bf8261227e565b602082019050919050565b600060208201905081810360008301526122e3816122a7565b9050919050565b7f4e487b7100000000000000000000000000000000000000000000000000000000600052603260045260246000fd5b7f566f74696e6720636c6f73656400000000000000000000000000000000000000600082015250565b600061234f600d83611527565b915061235a82612319565b602082019050919050565b6000602082019050818103600083015261237e81612342565b9050919050565b7f416c726561647920766f74656400000000000000000000000000000000000000600082015250565b60006123bb600d83611527565b91506123c682612385565b602082019050919050565b600060208201905081810360008301526123ea816123ae565b9050919050565b60006123fc826114b9565b91507fffffffffffffffffffffffffffffffffffffffffffffffffffffffffffffffff820361242e5761242d611d72565b5b600182019050919050565b600060408201905061244e60008301856118a0565b61245b60208301846115c7565b9392505050565b7f4d7573742073656e642045544800000000000000000000000000000000000000600082015250565b6000612498600d83611527565b91506124a382612462565b602082019050919050565b600060208201905081810360008301526124c78161248b565b9050919050565b60006124d9826114b9565b91506124e4836114b9565b92508282019050808211156124fc576124fb611d72565b5b92915050565b7f50726f706f73616c20636c6f7365640000000000000000000000000000000000600082015250565b6000612538600f83611527565b915061254382612502565b602082019050919050565b600060208201905081810360008301526125678161252b565b9050919050565b7f416c726561647920657865637574656400000000000000000000000000000000600082015250565b60006125a4601083611527565b91506125af8261256e565b602082019050919050565b600060208201905081810360008301526125d381612597565b9050919050565b60006040820190506125ef60008301856118a0565b6125fc60208301846115ac565b939250505056fea2646970667358221220422bf2e0511decfaa4112ee25b8422bc35cc66ca59539b54e1f3a1f38c5dbdb064736f6c634300081c0033",
  "linkReferences": {},
  "deployedLinkReferences": {}
}